{"@a16z/contracts/licenses/CantBeEvil.sol":{"CantBeEvil":{"abi":[{"inputs":[{"internalType":"enum LicenseVersion","name":"_licenseVersion","type":"uint8"}],"stateMutability":"nonpayable","type":"constructor"},{"inputs":[],"name":"getLicenseName","outputs":[{"internalType":"string","name":"","type":"string"}],"stateMutability":"view","type":"function"},{"inputs":[],"name":"getLicenseURI","outputs":[{"internalType":"string","name":"","type":"string"}],"stateMutability":"view","type":"function"},{"inputs":[{"internalType":"bytes4","name":"interfaceId","type":"bytes4"}],"name":"supportsInterface","outputs":[{"internalType":"bool","name":"","type":"bool"}],"stateMutability":"view","type":"function"}],"evm":{"bytecode":{"linkReferences":{},"object":"608060405234801561001057600080fd5b5060405161062c38038061062c83398101604081905261002f91610059565b6000805482919060ff1916600183600581111561004e5761004e610081565b021790555050610097565b60006020828403121561006b57600080fd5b81516006811061007a57600080fd5b9392505050565b634e487b7160e01b600052602160045260246000fd5b610586806100a66000396000f3fe608060405234801561001057600080fd5b50600436106100415760003560e01c806301ffc9a714610046578063a341793b1461006e578063c7db289314610083575b600080fd5b610059610054366004610430565b61008b565b60405190151581526020015b60405180910390f35b6100766100c2565b6040516100659190610491565b6100766100d9565b60006001600160e01b03198216630c934a3560e31b14806100bc57506301ffc9a760e01b6001600160e01b03198316145b92915050565b6000546060906100d49060ff16610139565b905090565b6060604051806060016040528060318152602001610520603191396000546101149060ff16600581111561010f5761010f6104c4565b6102c5565b6040516020016101259291906104da565b604051602081830303815290604052905090565b6060600682600581111561014f5761014f6104c4565b60ff16111561015d57600080fd5b81600581111561016f5761016f6104c4565b6000036101985750506040805180820190915260068152655055424c494360d01b602082015290565b8160058111156101aa576101aa6104c4565b6001036101d65750506040805180820190915260098152684558434c555349564560b81b602082015290565b8160058111156101e8576101e86104c4565b60020361021557505060408051808201909152600a81526910d3d353515490d2505360b21b602082015290565b816005811115610227576102276104c4565b60030361025c575050604080518082019091526012815271434f4d4d45524349414c5f4e4f5f4841544560701b602082015290565b81600581111561026e5761026e6104c4565b60040361029957505060408051808201909152600881526714115494d3d3905360c21b602082015290565b505060408051808201909152601081526f504552534f4e414c5f4e4f5f4841544560801b602082015290565b606060006102d283610358565b600101905060008167ffffffffffffffff8111156102f2576102f2610509565b6040519080825280601f01601f19166020018201604052801561031c576020820181803683370190505b5090508181016020015b600019016f181899199a1a9b1b9c1cb0b131b232b360811b600a86061a8153600a850494508461032657509392505050565b60008072184f03e93ff9f4daa797ed6e38ed64bf6a1f0160401b83106103975772184f03e93ff9f4daa797ed6e38ed64bf6a1f0160401b830492506040015b6d04ee2d6d415b85acef810000000083106103c3576d04ee2d6d415b85acef8100000000830492506020015b662386f26fc1000083106103e157662386f26fc10000830492506010015b6305f5e10083106103f9576305f5e100830492506008015b612710831061040d57612710830492506004015b6064831061041f576064830492506002015b600a83106100bc5760010192915050565b60006020828403121561044257600080fd5b81356001600160e01b03198116811461045a57600080fd5b9392505050565b60005b8381101561047c578181015183820152602001610464565b8381111561048b576000848401525b50505050565b60208152600082518060208401526104b0816040850160208701610461565b601f01601f19169190910160400192915050565b634e487b7160e01b600052602160045260246000fd5b600083516104ec818460208801610461565b835190830190610500818360208801610461565b01949350505050565b634e487b7160e01b600052604160045260246000fdfe61723a2f2f7a6d63315754737049684679565938326277664149634945784c4648356c55634848554e307758673457382fa26469706673582212200f02bc83476fd55d721d2641a0918a5807d86eea6aea6412be1b996df8c3fb5464736f6c634300080d0033","opcodes":"PUSH1 0x80 PUSH1 0x40 MSTORE CALLVALUE DUP1 ISZERO PUSH2 0x10 JUMPI PUSH1 0x0 DUP1 REVERT JUMPDEST POP PUSH1 0x40 MLOAD PUSH2 0x62C CODESIZE SUB DUP1 PUSH2 0x62C DUP4 CODECOPY DUP2 ADD PUSH1 0x40 DUP2 SWAP1 MSTORE PUSH2 0x2F SWAP2 PUSH2 0x59 JUMP JUMPDEST PUSH1 0x0 DUP1 SLOAD DUP3 SWAP2 SWAP1 PUSH1 0xFF NOT AND PUSH1 0x1 DUP4 PUSH1 0x5 DUP2 GT ISZERO PUSH2 0x4E JUMPI PUSH2 0x4E PUSH2 0x81 JUMP JUMPDEST MUL OR SWAP1 SSTORE POP POP PUSH2 0x97 JUMP JUMPDEST PUSH1 0x0 PUSH1 0x20 DUP3 DUP5 SUB SLT ISZERO PUSH2 0x6B JUMPI PUSH1 0x0 DUP1 REVERT JUMPDEST DUP2 MLOAD PUSH1 0x6 DUP2 LT PUSH2 0x7A JUMPI PUSH1 0x0 DUP1 REVERT JUMPDEST SWAP4 SWAP3 POP POP POP JUMP JUMPDEST PUSH4 0x4E487B71 PUSH1 0xE0 SHL PUSH1 0x0 MSTORE PUSH1 0x21 PUSH1 0x4 MSTORE PUSH1 0x24 PUSH1 0x0 REVERT JUMPDEST PUSH2 0x586 DUP1 PUSH2 0xA6 PUSH1 0x0 CODECOPY PUSH1 0x0 RETURN INVALID PUSH1 0x80 PUSH1 0x40 MSTORE CALLVALUE DUP1 ISZERO PUSH2 0x10 JUMPI PUSH1 0x0 DUP1 REVERT JUMPDEST POP PUSH1 0x4 CALLDATASIZE LT PUSH2 0x41 JUMPI PUSH1 0x0 CALLDATALOAD PUSH1 0xE0 SHR DUP1 PUSH4 0x1FFC9A7 EQ PUSH2 0x46 JUMPI DUP1 PUSH4 0xA341793B EQ PUSH2 0x6E JUMPI DUP1 PUSH4 0xC7DB2893 EQ PUSH2 0x83 JUMPI JUMPDEST PUSH1 0x0 DUP1 REVERT JUMPDEST PUSH2 0x59 PUSH2 0x54 CALLDATASIZE PUSH1 0x4 PUSH2 0x430 JUMP JUMPDEST PUSH2 0x8B JUMP JUMPDEST PUSH1 0x40 MLOAD SWAP1 ISZERO ISZERO DUP2 MSTORE PUSH1 0x20 ADD JUMPDEST PUSH1 0x40 MLOAD DUP1 SWAP2 SUB SWAP1 RETURN JUMPDEST PUSH2 0x76 PUSH2 0xC2 JUMP JUMPDEST PUSH1 0x40 MLOAD PUSH2 0x65 SWAP2 SWAP1 PUSH2 0x491 JUMP JUMPDEST PUSH2 0x76 PUSH2 0xD9 JUMP JUMPDEST PUSH1 0x0 PUSH1 0x1 PUSH1 0x1 PUSH1 0xE0 SHL SUB NOT DUP3 AND PUSH4 0xC934A35 PUSH1 0xE3 SHL EQ DUP1 PUSH2 0xBC JUMPI POP PUSH4 0x1FFC9A7 PUSH1 0xE0 SHL PUSH1 0x1 PUSH1 0x1 PUSH1 0xE0 SHL SUB NOT DUP4 AND EQ JUMPDEST SWAP3 SWAP2 POP POP JUMP JUMPDEST PUSH1 0x0 SLOAD PUSH1 0x60 SWAP1 PUSH2 0xD4 SWAP1 PUSH1 0xFF AND PUSH2 0x139 JUMP JUMPDEST SWAP1 POP SWAP1 JUMP JUMPDEST PUSH1 0x60 PUSH1 0x40 MLOAD DUP1 PUSH1 0x60 ADD PUSH1 0x40 MSTORE DUP1 PUSH1 0x31 DUP2 MSTORE PUSH1 0x20 ADD PUSH2 0x520 PUSH1 0x31 SWAP2 CODECOPY PUSH1 0x0 SLOAD PUSH2 0x114 SWAP1 PUSH1 0xFF AND PUSH1 0x5 DUP2 GT ISZERO PUSH2 0x10F JUMPI PUSH2 0x10F PUSH2 0x4C4 JUMP JUMPDEST PUSH2 0x2C5 JUMP JUMPDEST PUSH1 0x40 MLOAD PUSH1 0x20 ADD PUSH2 0x125 SWAP3 SWAP2 SWAP1 PUSH2 0x4DA JUMP JUMPDEST PUSH1 0x40 MLOAD PUSH1 0x20 DUP2 DUP4 SUB SUB DUP2 MSTORE SWAP1 PUSH1 0x40 MSTORE SWAP1 POP SWAP1 JUMP JUMPDEST PUSH1 0x60 PUSH1 0x6 DUP3 PUSH1 0x5 DUP2 GT ISZERO PUSH2 0x14F JUMPI PUSH2 0x14F PUSH2 0x4C4 JUMP JUMPDEST PUSH1 0xFF AND GT ISZERO PUSH2 0x15D JUMPI PUSH1 0x0 DUP1 REVERT JUMPDEST DUP2 PUSH1 0x5 DUP2 GT ISZERO PUSH2 0x16F JUMPI PUSH2 0x16F PUSH2 0x4C4 JUMP JUMPDEST PUSH1 0x0 SUB PUSH2 0x198 JUMPI POP POP PUSH1 0x40 DUP1 MLOAD DUP1 DUP3 ADD SWAP1 SWAP2 MSTORE PUSH1 0x6 DUP2 MSTORE PUSH6 0x5055424C4943 PUSH1 0xD0 SHL PUSH1 0x20 DUP3 ADD MSTORE SWAP1 JUMP JUMPDEST DUP2 PUSH1 0x5 DUP2 GT ISZERO PUSH2 0x1AA JUMPI PUSH2 0x1AA PUSH2 0x4C4 JUMP JUMPDEST PUSH1 0x1 SUB PUSH2 0x1D6 JUMPI POP POP PUSH1 0x40 DUP1 MLOAD DUP1 DUP3 ADD SWAP1 SWAP2 MSTORE PUSH1 0x9 DUP2 MSTORE PUSH9 0x4558434C5553495645 PUSH1 0xB8 SHL PUSH1 0x20 DUP3 ADD MSTORE SWAP1 JUMP JUMPDEST DUP2 PUSH1 0x5 DUP2 GT ISZERO PUSH2 0x1E8 JUMPI PUSH2 0x1E8 PUSH2 0x4C4 JUMP JUMPDEST PUSH1 0x2 SUB PUSH2 0x215 JUMPI POP POP PUSH1 0x40 DUP1 MLOAD DUP1 DUP3 ADD SWAP1 SWAP2 MSTORE PUSH1 0xA DUP2 MSTORE PUSH10 0x10D3D353515490D25053 PUSH1 0xB2 SHL PUSH1 0x20 DUP3 ADD MSTORE SWAP1 JUMP JUMPDEST DUP2 PUSH1 0x5 DUP2 GT ISZERO PUSH2 0x227 JUMPI PUSH2 0x227 PUSH2 0x4C4 JUMP JUMPDEST PUSH1 0x3 SUB PUSH2 0x25C JUMPI POP POP PUSH1 0x40 DUP1 MLOAD DUP1 DUP3 ADD SWAP1 SWAP2 MSTORE PUSH1 0x12 DUP2 MSTORE PUSH18 0x434F4D4D45524349414C5F4E4F5F48415445 PUSH1 0x70 SHL PUSH1 0x20 DUP3 ADD MSTORE SWAP1 JUMP JUMPDEST DUP2 PUSH1 0x5 DUP2 GT ISZERO PUSH2 0x26E JUMPI PUSH2 0x26E PUSH2 0x4C4 JUMP JUMPDEST PUSH1 0x4 SUB PUSH2 0x299 JUMPI POP POP PUSH1 0x40 DUP1 MLOAD DUP1 DUP3 ADD SWAP1 SWAP2 MSTORE PUSH1 0x8 DUP2 MSTORE PUSH8 0x14115494D3D39053 PUSH1 0xC2 SHL PUSH1 0x20 DUP3 ADD MSTORE SWAP1 JUMP JUMPDEST POP POP PUSH1 0x40 DUP1 MLOAD DUP1 DUP3 ADD SWAP1 SWAP2 MSTORE PUSH1 0x10 DUP2 MSTORE PUSH16 0x504552534F4E414C5F4E4F5F48415445 PUSH1 0x80 SHL PUSH1 0x20 DUP3 ADD MSTORE SWAP1 JUMP JUMPDEST PUSH1 0x60 PUSH1 0x0 PUSH2 0x2D2 DUP4 PUSH2 0x358 JUMP JUMPDEST PUSH1 0x1 ADD SWAP1 POP PUSH1 0x0 DUP2 PUSH8 0xFFFFFFFFFFFFFFFF DUP2 GT ISZERO PUSH2 0x2F2 JUMPI PUSH2 0x2F2 PUSH2 0x509 JUMP JUMPDEST PUSH1 0x40 MLOAD SWAP1 DUP1 DUP3 MSTORE DUP1 PUSH1 0x1F ADD PUSH1 0x1F NOT AND PUSH1 0x20 ADD DUP3 ADD PUSH1 0x40 MSTORE DUP1 ISZERO PUSH2 0x31C JUMPI PUSH1 0x20 DUP3 ADD DUP2 DUP1 CALLDATASIZE DUP4 CALLDATACOPY ADD SWAP1 POP JUMPDEST POP SWAP1 POP DUP2 DUP2 ADD PUSH1 0x20 ADD JUMPDEST PUSH1 0x0 NOT ADD PUSH16 0x181899199A1A9B1B9C1CB0B131B232B3 PUSH1 0x81 SHL PUSH1 0xA DUP7 MOD BYTE DUP2 MSTORE8 PUSH1 0xA DUP6 DIV SWAP5 POP DUP5 PUSH2 0x326 JUMPI POP SWAP4 SWAP3 POP POP POP JUMP JUMPDEST PUSH1 0x0 DUP1 PUSH19 0x184F03E93FF9F4DAA797ED6E38ED64BF6A1F01 PUSH1 0x40 SHL DUP4 LT PUSH2 0x397 JUMPI PUSH19 0x184F03E93FF9F4DAA797ED6E38ED64BF6A1F01 PUSH1 0x40 SHL DUP4 DIV SWAP3 POP PUSH1 0x40 ADD JUMPDEST PUSH14 0x4EE2D6D415B85ACEF8100000000 DUP4 LT PUSH2 0x3C3 JUMPI PUSH14 0x4EE2D6D415B85ACEF8100000000 DUP4 DIV SWAP3 POP PUSH1 0x20 ADD JUMPDEST PUSH7 0x2386F26FC10000 DUP4 LT PUSH2 0x3E1 JUMPI PUSH7 0x2386F26FC10000 DUP4 DIV SWAP3 POP PUSH1 0x10 ADD JUMPDEST PUSH4 0x5F5E100 DUP4 LT PUSH2 0x3F9 JUMPI PUSH4 0x5F5E100 DUP4 DIV SWAP3 POP PUSH1 0x8 ADD JUMPDEST PUSH2 0x2710 DUP4 LT PUSH2 0x40D JUMPI PUSH2 0x2710 DUP4 DIV SWAP3 POP PUSH1 0x4 ADD JUMPDEST PUSH1 0x64 DUP4 LT PUSH2 0x41F JUMPI PUSH1 0x64 DUP4 DIV SWAP3 POP PUSH1 0x2 ADD JUMPDEST PUSH1 0xA DUP4 LT PUSH2 0xBC JUMPI PUSH1 0x1 ADD SWAP3 SWAP2 POP POP JUMP JUMPDEST PUSH1 0x0 PUSH1 0x20 DUP3 DUP5 SUB SLT ISZERO PUSH2 0x442 JUMPI PUSH1 0x0 DUP1 REVERT JUMPDEST DUP2 CALLDATALOAD PUSH1 0x1 PUSH1 0x1 PUSH1 0xE0 SHL SUB NOT DUP2 AND DUP2 EQ PUSH2 0x45A JUMPI PUSH1 0x0 DUP1 REVERT JUMPDEST SWAP4 SWAP3 POP POP POP JUMP JUMPDEST PUSH1 0x0 JUMPDEST DUP4 DUP2 LT ISZERO PUSH2 0x47C JUMPI DUP2 DUP2 ADD MLOAD DUP4 DUP3 ADD MSTORE PUSH1 0x20 ADD PUSH2 0x464 JUMP JUMPDEST DUP4 DUP2 GT ISZERO PUSH2 0x48B JUMPI PUSH1 0x0 DUP5 DUP5 ADD MSTORE JUMPDEST POP POP POP POP JUMP JUMPDEST PUSH1 0x20 DUP2 MSTORE PUSH1 0x0 DUP3 MLOAD DUP1 PUSH1 0x20 DUP5 ADD MSTORE PUSH2 0x4B0 DUP2 PUSH1 0x40 DUP6 ADD PUSH1 0x20 DUP8 ADD PUSH2 0x461 JUMP JUMPDEST PUSH1 0x1F ADD PUSH1 0x1F NOT AND SWAP2 SWAP1 SWAP2 ADD PUSH1 0x40 ADD SWAP3 SWAP2 POP POP JUMP JUMPDEST PUSH4 0x4E487B71 PUSH1 0xE0 SHL PUSH1 0x0 MSTORE PUSH1 0x21 PUSH1 0x4 MSTORE PUSH1 0x24 PUSH1 0x0 REVERT JUMPDEST PUSH1 0x0 DUP4 MLOAD PUSH2 0x4EC DUP2 DUP5 PUSH1 0x20 DUP9 ADD PUSH2 0x461 JUMP JUMPDEST DUP4 MLOAD SWAP1 DUP4 ADD SWAP1 PUSH2 0x500 DUP2 DUP4 PUSH1 0x20 DUP9 ADD PUSH2 0x461 JUMP JUMPDEST ADD SWAP5 SWAP4 POP POP POP POP JUMP JUMPDEST PUSH4 0x4E487B71 PUSH1 0xE0 SHL PUSH1 0x0 MSTORE PUSH1 0x41 PUSH1 0x4 MSTORE PUSH1 0x24 PUSH1 0x0 REVERT INVALID PUSH2 0x723A 0x2F 0x2F PUSH27 0x6D63315754737049684679565938326277664149634945784C4648 CALLDATALOAD PUSH13 0x55634848554E30775867345738 0x2F LOG2 PUSH5 0x6970667358 0x22 SLT KECCAK256 0xF MUL 0xBC DUP4 SELFBALANCE PUSH16 0xD55D721D2641A0918A5807D86EEA6AEA PUSH5 0x12BE1B996D 0xF8 0xC3 0xFB SLOAD PUSH5 0x736F6C6343 STOP ADDMOD 0xD STOP CALLER "},"methodIdentifiers":{"getLicenseName()":"a341793b","getLicenseURI()":"c7db2893","supportsInterface(bytes4)":"01ffc9a7"}}}}}