{
  "_format": "hh-sol-artifact-1",
  "contractName": "CurrencyTransferLib",
  "sourceName": "@thirdweb-dev/contracts/lib/CurrencyTransferLib.sol",
  "abi": [
    {
      "inputs": [],
      "name": "NATIVE_TOKEN",
      "outputs": [
        {
          "internalType": "address",
          "name": "",
          "type": "address"
        }
      ],
      "stateMutability": "view",
      "type": "function"
    }
  ],
  "bytecode": "0x60a4610038600b82828239805160001a607314602b57634e487b7160e01b600052600060045260246000fd5b30600052607381538281f3fe730000000000000000000000000000000000000000301460806040526004361060335760003560e01c806331f7d964146038575b600080fd5b605273eeeeeeeeeeeeeeeeeeeeeeeeeeeeeeeeeeeeeeee81565b6040516001600160a01b03909116815260200160405180910390f3fea2646970667358221220baf88aa2b064b13bfe6a747935611a977d7a57daf953c8850227018559ffd91964736f6c634300080d0033",
  "linkReferences": {},
  "deployedLinkReferences": {}
}