{
  "_format": "hh-sol-artifact-1",
  "contractName": "MyContract",
  "sourceName": "contracts/MyContract.sol",
  "abi": [
    {
      "inputs": [
        {
          "internalType": "string",
          "name": "_name",
          "type": "string"
        },
        {
          "internalType": "string",
          "name": "_symbol",
          "type": "string"
        },
        {
          "internalType": "address",
          "name": "_royaltyRecipient",
          "type": "address"
        },
        {
          "internalType": "uint128",
          "name": "_royaltyBps",
          "type": "uint128"
        },
        {
          "internalType": "address",
          "name": "_primarySaleRecipient",
          "type": "address"
        }
      ],
      "stateMutability": "nonpayable",
      "type": "constructor"
    },
    {
      "inputs": [],
      "name": "ApprovalCallerNotOwnerNorApproved",
      "type": "error"
    },
    {
      "inputs": [],
      "name": "ApprovalQueryForNonexistentToken",
      "type": "error"
    },
    {
      "inputs": [],
      "name": "ApprovalToCurrentOwner",
      "type": "error"
    },
    {
      "inputs": [],
      "name": "ApproveToCaller",
      "type": "error"
    },
    {
      "inputs": [],
      "name": "BalanceQueryForZeroAddress",
      "type": "error"
    },
    {
      "inputs": [],
      "name": "MintToZeroAddress",
      "type": "error"
    },
    {
      "inputs": [],
      "name": "MintZeroQuantity",
      "type": "error"
    },
    {
      "inputs": [
        {
          "internalType": "address",
          "name": "operator",
          "type": "address"
        }
      ],
      "name": "OperatorNotAllowed",
      "type": "error"
    },
    {
      "inputs": [],
      "name": "OwnerQueryForNonexistentToken",
      "type": "error"
    },
    {
      "inputs": [],
      "name": "TransferCallerNotOwnerNorApproved",
      "type": "error"
    },
    {
      "inputs": [],
      "name": "TransferFromIncorrectOwner",
      "type": "error"
    },
    {
      "inputs": [],
      "name": "TransferToNonERC721ReceiverImplementer",
      "type": "error"
    },
    {
      "inputs": [],
      "name": "TransferToZeroAddress",
      "type": "error"
    },
    {
      "inputs": [],
      "name": "URIQueryForNonexistentToken",
      "type": "error"
    },
    {
      "anonymous": false,
      "inputs": [
        {
          "indexed": true,
          "internalType": "address",
          "name": "owner",
          "type": "address"
        },
        {
          "indexed": true,
          "internalType": "address",
          "name": "approved",
          "type": "address"
        },
        {
          "indexed": true,
          "internalType": "uint256",
          "name": "tokenId",
          "type": "uint256"
        }
      ],
      "name": "Approval",
      "type": "event"
    },
    {
      "anonymous": false,
      "inputs": [
        {
          "indexed": true,
          "internalType": "address",
          "name": "owner",
          "type": "address"
        },
        {
          "indexed": true,
          "internalType": "address",
          "name": "operator",
          "type": "address"
        },
        {
          "indexed": false,
          "internalType": "bool",
          "name": "approved",
          "type": "bool"
        }
      ],
      "name": "ApprovalForAll",
      "type": "event"
    },
    {
      "anonymous": false,
      "inputs": [
        {
          "components": [
            {
              "internalType": "uint256",
              "name": "startTimestamp",
              "type": "uint256"
            },
            {
              "internalType": "uint256",
              "name": "maxClaimableSupply",
              "type": "uint256"
            },
            {
              "internalType": "uint256",
              "name": "supplyClaimed",
              "type": "uint256"
            },
            {
              "internalType": "uint256",
              "name": "quantityLimitPerWallet",
              "type": "uint256"
            },
            {
              "internalType": "bytes32",
              "name": "merkleRoot",
              "type": "bytes32"
            },
            {
              "internalType": "uint256",
              "name": "pricePerToken",
              "type": "uint256"
            },
            {
              "internalType": "address",
              "name": "currency",
              "type": "address"
            },
            {
              "internalType": "string",
              "name": "metadata",
              "type": "string"
            }
          ],
          "indexed": false,
          "internalType": "struct IClaimCondition.ClaimCondition",
          "name": "condition",
          "type": "tuple"
        },
        {
          "indexed": false,
          "internalType": "bool",
          "name": "resetEligibility",
          "type": "bool"
        }
      ],
      "name": "ClaimConditionUpdated",
      "type": "event"
    },
    {
      "anonymous": false,
      "inputs": [
        {
          "indexed": false,
          "internalType": "string",
          "name": "prevURI",
          "type": "string"
        },
        {
          "indexed": false,
          "internalType": "string",
          "name": "newURI",
          "type": "string"
        }
      ],
      "name": "ContractURIUpdated",
      "type": "event"
    },
    {
      "anonymous": false,
      "inputs": [
        {
          "indexed": true,
          "internalType": "address",
          "name": "newRoyaltyRecipient",
          "type": "address"
        },
        {
          "indexed": false,
          "internalType": "uint256",
          "name": "newRoyaltyBps",
          "type": "uint256"
        }
      ],
      "name": "DefaultRoyalty",
      "type": "event"
    },
    {
      "anonymous": false,
      "inputs": [
        {
          "indexed": false,
          "internalType": "bool",
          "name": "restriction",
          "type": "bool"
        }
      ],
      "name": "OperatorRestriction",
      "type": "event"
    },
    {
      "anonymous": false,
      "inputs": [
        {
          "indexed": true,
          "internalType": "address",
          "name": "prevOwner",
          "type": "address"
        },
        {
          "indexed": true,
          "internalType": "address",
          "name": "newOwner",
          "type": "address"
        }
      ],
      "name": "OwnerUpdated",
      "type": "event"
    },
    {
      "anonymous": false,
      "inputs": [
        {
          "indexed": true,
          "internalType": "address",
          "name": "recipient",
          "type": "address"
        }
      ],
      "name": "PrimarySaleRecipientUpdated",
      "type": "event"
    },
    {
      "anonymous": false,
      "inputs": [
        {
          "indexed": true,
          "internalType": "uint256",
          "name": "tokenId",
          "type": "uint256"
        },
        {
          "indexed": true,
          "internalType": "address",
          "name": "royaltyRecipient",
          "type": "address"
        },
        {
          "indexed": false,
          "internalType": "uint256",
          "name": "royaltyBps",
          "type": "uint256"
        }
      ],
      "name": "RoyaltyForToken",
      "type": "event"
    },
    {
      "anonymous": false,
      "inputs": [
        {
          "indexed": true,
          "internalType": "uint256",
          "name": "index",
          "type": "uint256"
        },
        {
          "indexed": false,
          "internalType": "string",
          "name": "revealedURI",
          "type": "string"
        }
      ],
      "name": "TokenURIRevealed",
      "type": "event"
    },
    {
      "anonymous": false,
      "inputs": [
        {
          "indexed": true,
          "internalType": "address",
          "name": "claimer",
          "type": "address"
        },
        {
          "indexed": true,
          "internalType": "address",
          "name": "receiver",
          "type": "address"
        },
        {
          "indexed": true,
          "internalType": "uint256",
          "name": "startTokenId",
          "type": "uint256"
        },
        {
          "indexed": false,
          "internalType": "uint256",
          "name": "quantityClaimed",
          "type": "uint256"
        }
      ],
      "name": "TokensClaimed",
      "type": "event"
    },
    {
      "anonymous": false,
      "inputs": [
        {
          "indexed": true,
          "internalType": "uint256",
          "name": "startTokenId",
          "type": "uint256"
        },
        {
          "indexed": false,
          "internalType": "uint256",
          "name": "endTokenId",
          "type": "uint256"
        },
        {
          "indexed": false,
          "internalType": "string",
          "name": "baseURI",
          "type": "string"
        },
        {
          "indexed": false,
          "internalType": "bytes",
          "name": "encryptedBaseURI",
          "type": "bytes"
        }
      ],
      "name": "TokensLazyMinted",
      "type": "event"
    },
    {
      "anonymous": false,
      "inputs": [
        {
          "indexed": true,
          "internalType": "address",
          "name": "from",
          "type": "address"
        },
        {
          "indexed": true,
          "internalType": "address",
          "name": "to",
          "type": "address"
        },
        {
          "indexed": true,
          "internalType": "uint256",
          "name": "tokenId",
          "type": "uint256"
        }
      ],
      "name": "Transfer",
      "type": "event"
    },
    {
      "inputs": [],
      "name": "OPERATOR_FILTER_REGISTRY",
      "outputs": [
        {
          "internalType": "contract IOperatorFilterRegistry",
          "name": "",
          "type": "address"
        }
      ],
      "stateMutability": "view",
      "type": "function"
    },
    {
      "inputs": [
        {
          "internalType": "address",
          "name": "operator",
          "type": "address"
        },
        {
          "internalType": "uint256",
          "name": "tokenId",
          "type": "uint256"
        }
      ],
      "name": "approve",
      "outputs": [],
      "stateMutability": "nonpayable",
      "type": "function"
    },
    {
      "inputs": [
        {
          "internalType": "address",
          "name": "owner",
          "type": "address"
        }
      ],
      "name": "balanceOf",
      "outputs": [
        {
          "internalType": "uint256",
          "name": "",
          "type": "uint256"
        }
      ],
      "stateMutability": "view",
      "type": "function"
    },
    {
      "inputs": [
        {
          "internalType": "uint256",
          "name": "_tokenId",
          "type": "uint256"
        }
      ],
      "name": "burn",
      "outputs": [],
      "stateMutability": "nonpayable",
      "type": "function"
    },
    {
      "inputs": [
        {
          "internalType": "address",
          "name": "_receiver",
          "type": "address"
        },
        {
          "internalType": "uint256",
          "name": "_quantity",
          "type": "uint256"
        },
        {
          "internalType": "address",
          "name": "_currency",
          "type": "address"
        },
        {
          "internalType": "uint256",
          "name": "_pricePerToken",
          "type": "uint256"
        },
        {
          "components": [
            {
              "internalType": "bytes32[]",
              "name": "proof",
              "type": "bytes32[]"
            },
            {
              "internalType": "uint256",
              "name": "quantityLimitPerWallet",
              "type": "uint256"
            },
            {
              "internalType": "uint256",
              "name": "pricePerToken",
              "type": "uint256"
            },
            {
              "internalType": "address",
              "name": "currency",
              "type": "address"
            }
          ],
          "internalType": "struct IDropSinglePhase.AllowlistProof",
          "name": "_allowlistProof",
          "type": "tuple"
        },
        {
          "internalType": "bytes",
          "name": "_data",
          "type": "bytes"
        }
      ],
      "name": "claim",
      "outputs": [],
      "stateMutability": "payable",
      "type": "function"
    },
    {
      "inputs": [],
      "name": "claimCondition",
      "outputs": [
        {
          "internalType": "uint256",
          "name": "startTimestamp",
          "type": "uint256"
        },
        {
          "internalType": "uint256",
          "name": "maxClaimableSupply",
          "type": "uint256"
        },
        {
          "internalType": "uint256",
          "name": "supplyClaimed",
          "type": "uint256"
        },
        {
          "internalType": "uint256",
          "name": "quantityLimitPerWallet",
          "type": "uint256"
        },
        {
          "internalType": "bytes32",
          "name": "merkleRoot",
          "type": "bytes32"
        },
        {
          "internalType": "uint256",
          "name": "pricePerToken",
          "type": "uint256"
        },
        {
          "internalType": "address",
          "name": "currency",
          "type": "address"
        },
        {
          "internalType": "string",
          "name": "metadata",
          "type": "string"
        }
      ],
      "stateMutability": "view",
      "type": "function"
    },
    {
      "inputs": [],
      "name": "contractURI",
      "outputs": [
        {
          "internalType": "string",
          "name": "",
          "type": "string"
        }
      ],
      "stateMutability": "view",
      "type": "function"
    },
    {
      "inputs": [
        {
          "internalType": "bytes",
          "name": "data",
          "type": "bytes"
        },
        {
          "internalType": "bytes",
          "name": "key",
          "type": "bytes"
        }
      ],
      "name": "encryptDecrypt",
      "outputs": [
        {
          "internalType": "bytes",
          "name": "result",
          "type": "bytes"
        }
      ],
      "stateMutability": "pure",
      "type": "function"
    },
    {
      "inputs": [
        {
          "internalType": "uint256",
          "name": "",
          "type": "uint256"
        }
      ],
      "name": "encryptedData",
      "outputs": [
        {
          "internalType": "bytes",
          "name": "",
          "type": "bytes"
        }
      ],
      "stateMutability": "view",
      "type": "function"
    },
    {
      "inputs": [
        {
          "internalType": "uint256",
          "name": "tokenId",
          "type": "uint256"
        }
      ],
      "name": "getApproved",
      "outputs": [
        {
          "internalType": "address",
          "name": "",
          "type": "address"
        }
      ],
      "stateMutability": "view",
      "type": "function"
    },
    {
      "inputs": [],
      "name": "getBaseURICount",
      "outputs": [
        {
          "internalType": "uint256",
          "name": "",
          "type": "uint256"
        }
      ],
      "stateMutability": "view",
      "type": "function"
    },
    {
      "inputs": [
        {
          "internalType": "uint256",
          "name": "_index",
          "type": "uint256"
        }
      ],
      "name": "getBatchIdAtIndex",
      "outputs": [
        {
          "internalType": "uint256",
          "name": "",
          "type": "uint256"
        }
      ],
      "stateMutability": "view",
      "type": "function"
    },
    {
      "inputs": [],
      "name": "getDefaultRoyaltyInfo",
      "outputs": [
        {
          "internalType": "address",
          "name": "",
          "type": "address"
        },
        {
          "internalType": "uint16",
          "name": "",
          "type": "uint16"
        }
      ],
      "stateMutability": "view",
      "type": "function"
    },
    {
      "inputs": [],
      "name": "getLicenseName",
      "outputs": [
        {
          "internalType": "string",
          "name": "",
          "type": "string"
        }
      ],
      "stateMutability": "view",
      "type": "function"
    },
    {
      "inputs": [],
      "name": "getLicenseURI",
      "outputs": [
        {
          "internalType": "string",
          "name": "",
          "type": "string"
        }
      ],
      "stateMutability": "view",
      "type": "function"
    },
    {
      "inputs": [
        {
          "internalType": "uint256",
          "name": "_batchId",
          "type": "uint256"
        },
        {
          "internalType": "bytes",
          "name": "_key",
          "type": "bytes"
        }
      ],
      "name": "getRevealURI",
      "outputs": [
        {
          "internalType": "string",
          "name": "revealedURI",
          "type": "string"
        }
      ],
      "stateMutability": "view",
      "type": "function"
    },
    {
      "inputs": [
        {
          "internalType": "uint256",
          "name": "_tokenId",
          "type": "uint256"
        }
      ],
      "name": "getRoyaltyInfoForToken",
      "outputs": [
        {
          "internalType": "address",
          "name": "",
          "type": "address"
        },
        {
          "internalType": "uint16",
          "name": "",
          "type": "uint16"
        }
      ],
      "stateMutability": "view",
      "type": "function"
    },
    {
      "inputs": [
        {
          "internalType": "address",
          "name": "_claimer",
          "type": "address"
        }
      ],
      "name": "getSupplyClaimedByWallet",
      "outputs": [
        {
          "internalType": "uint256",
          "name": "",
          "type": "uint256"
        }
      ],
      "stateMutability": "view",
      "type": "function"
    },
    {
      "inputs": [
        {
          "internalType": "address",
          "name": "owner",
          "type": "address"
        },
        {
          "internalType": "address",
          "name": "operator",
          "type": "address"
        }
      ],
      "name": "isApprovedForAll",
      "outputs": [
        {
          "internalType": "bool",
          "name": "",
          "type": "bool"
        }
      ],
      "stateMutability": "view",
      "type": "function"
    },
    {
      "inputs": [
        {
          "internalType": "uint256",
          "name": "_batchId",
          "type": "uint256"
        }
      ],
      "name": "isEncryptedBatch",
      "outputs": [
        {
          "internalType": "bool",
          "name": "",
          "type": "bool"
        }
      ],
      "stateMutability": "view",
      "type": "function"
    },
    {
      "inputs": [
        {
          "internalType": "uint256",
          "name": "_amount",
          "type": "uint256"
        },
        {
          "internalType": "string",
          "name": "_baseURIForTokens",
          "type": "string"
        },
        {
          "internalType": "bytes",
          "name": "_data",
          "type": "bytes"
        }
      ],
      "name": "lazyMint",
      "outputs": [
        {
          "internalType": "uint256",
          "name": "batchId",
          "type": "uint256"
        }
      ],
      "stateMutability": "nonpayable",
      "type": "function"
    },
    {
      "inputs": [
        {
          "internalType": "bytes[]",
          "name": "data",
          "type": "bytes[]"
        }
      ],
      "name": "multicall",
      "outputs": [
        {
          "internalType": "bytes[]",
          "name": "results",
          "type": "bytes[]"
        }
      ],
      "stateMutability": "nonpayable",
      "type": "function"
    },
    {
      "inputs": [],
      "name": "name",
      "outputs": [
        {
          "internalType": "string",
          "name": "",
          "type": "string"
        }
      ],
      "stateMutability": "view",
      "type": "function"
    },
    {
      "inputs": [],
      "name": "nextTokenIdToClaim",
      "outputs": [
        {
          "internalType": "uint256",
          "name": "",
          "type": "uint256"
        }
      ],
      "stateMutability": "view",
      "type": "function"
    },
    {
      "inputs": [],
      "name": "nextTokenIdToMint",
      "outputs": [
        {
          "internalType": "uint256",
          "name": "",
          "type": "uint256"
        }
      ],
      "stateMutability": "view",
      "type": "function"
    },
    {
      "inputs": [],
      "name": "operatorRestriction",
      "outputs": [
        {
          "internalType": "bool",
          "name": "",
          "type": "bool"
        }
      ],
      "stateMutability": "view",
      "type": "function"
    },
    {
      "inputs": [],
      "name": "owner",
      "outputs": [
        {
          "internalType": "address",
          "name": "",
          "type": "address"
        }
      ],
      "stateMutability": "view",
      "type": "function"
    },
    {
      "inputs": [
        {
          "internalType": "uint256",
          "name": "tokenId",
          "type": "uint256"
        }
      ],
      "name": "ownerOf",
      "outputs": [
        {
          "internalType": "address",
          "name": "",
          "type": "address"
        }
      ],
      "stateMutability": "view",
      "type": "function"
    },
    {
      "inputs": [],
      "name": "primarySaleRecipient",
      "outputs": [
        {
          "internalType": "address",
          "name": "",
          "type": "address"
        }
      ],
      "stateMutability": "view",
      "type": "function"
    },
    {
      "inputs": [
        {
          "internalType": "uint256",
          "name": "_index",
          "type": "uint256"
        },
        {
          "internalType": "bytes",
          "name": "_key",
          "type": "bytes"
        }
      ],
      "name": "reveal",
      "outputs": [
        {
          "internalType": "string",
          "name": "revealedURI",
          "type": "string"
        }
      ],
      "stateMutability": "nonpayable",
      "type": "function"
    },
    {
      "inputs": [
        {
          "internalType": "uint256",
          "name": "tokenId",
          "type": "uint256"
        },
        {
          "internalType": "uint256",
          "name": "salePrice",
          "type": "uint256"
        }
      ],
      "name": "royaltyInfo",
      "outputs": [
        {
          "internalType": "address",
          "name": "receiver",
          "type": "address"
        },
        {
          "internalType": "uint256",
          "name": "royaltyAmount",
          "type": "uint256"
        }
      ],
      "stateMutability": "view",
      "type": "function"
    },
    {
      "inputs": [
        {
          "internalType": "address",
          "name": "from",
          "type": "address"
        },
        {
          "internalType": "address",
          "name": "to",
          "type": "address"
        },
        {
          "internalType": "uint256",
          "name": "tokenId",
          "type": "uint256"
        }
      ],
      "name": "safeTransferFrom",
      "outputs": [],
      "stateMutability": "nonpayable",
      "type": "function"
    },
    {
      "inputs": [
        {
          "internalType": "address",
          "name": "from",
          "type": "address"
        },
        {
          "internalType": "address",
          "name": "to",
          "type": "address"
        },
        {
          "internalType": "uint256",
          "name": "tokenId",
          "type": "uint256"
        },
        {
          "internalType": "bytes",
          "name": "data",
          "type": "bytes"
        }
      ],
      "name": "safeTransferFrom",
      "outputs": [],
      "stateMutability": "nonpayable",
      "type": "function"
    },
    {
      "inputs": [
        {
          "internalType": "address",
          "name": "operator",
          "type": "address"
        },
        {
          "internalType": "bool",
          "name": "approved",
          "type": "bool"
        }
      ],
      "name": "setApprovalForAll",
      "outputs": [],
      "stateMutability": "nonpayable",
      "type": "function"
    },
    {
      "inputs": [
        {
          "components": [
            {
              "internalType": "uint256",
              "name": "startTimestamp",
              "type": "uint256"
            },
            {
              "internalType": "uint256",
              "name": "maxClaimableSupply",
              "type": "uint256"
            },
            {
              "internalType": "uint256",
              "name": "supplyClaimed",
              "type": "uint256"
            },
            {
              "internalType": "uint256",
              "name": "quantityLimitPerWallet",
              "type": "uint256"
            },
            {
              "internalType": "bytes32",
              "name": "merkleRoot",
              "type": "bytes32"
            },
            {
              "internalType": "uint256",
              "name": "pricePerToken",
              "type": "uint256"
            },
            {
              "internalType": "address",
              "name": "currency",
              "type": "address"
            },
            {
              "internalType": "string",
              "name": "metadata",
              "type": "string"
            }
          ],
          "internalType": "struct IClaimCondition.ClaimCondition",
          "name": "_condition",
          "type": "tuple"
        },
        {
          "internalType": "bool",
          "name": "_resetClaimEligibility",
          "type": "bool"
        }
      ],
      "name": "setClaimConditions",
      "outputs": [],
      "stateMutability": "nonpayable",
      "type": "function"
    },
    {
      "inputs": [
        {
          "internalType": "string",
          "name": "_uri",
          "type": "string"
        }
      ],
      "name": "setContractURI",
      "outputs": [],
      "stateMutability": "nonpayable",
      "type": "function"
    },
    {
      "inputs": [
        {
          "internalType": "address",
          "name": "_royaltyRecipient",
          "type": "address"
        },
        {
          "internalType": "uint256",
          "name": "_royaltyBps",
          "type": "uint256"
        }
      ],
      "name": "setDefaultRoyaltyInfo",
      "outputs": [],
      "stateMutability": "nonpayable",
      "type": "function"
    },
    {
      "inputs": [
        {
          "internalType": "bool",
          "name": "_restriction",
          "type": "bool"
        }
      ],
      "name": "setOperatorRestriction",
      "outputs": [],
      "stateMutability": "nonpayable",
      "type": "function"
    },
    {
      "inputs": [
        {
          "internalType": "address",
          "name": "_newOwner",
          "type": "address"
        }
      ],
      "name": "setOwner",
      "outputs": [],
      "stateMutability": "nonpayable",
      "type": "function"
    },
    {
      "inputs": [
        {
          "internalType": "address",
          "name": "_saleRecipient",
          "type": "address"
        }
      ],
      "name": "setPrimarySaleRecipient",
      "outputs": [],
      "stateMutability": "nonpayable",
      "type": "function"
    },
    {
      "inputs": [
        {
          "internalType": "uint256",
          "name": "_tokenId",
          "type": "uint256"
        },
        {
          "internalType": "address",
          "name": "_recipient",
          "type": "address"
        },
        {
          "internalType": "uint256",
          "name": "_bps",
          "type": "uint256"
        }
      ],
      "name": "setRoyaltyInfoForToken",
      "outputs": [],
      "stateMutability": "nonpayable",
      "type": "function"
    },
    {
      "inputs": [
        {
          "internalType": "bytes4",
          "name": "interfaceId",
          "type": "bytes4"
        }
      ],
      "name": "supportsInterface",
      "outputs": [
        {
          "internalType": "bool",
          "name": "",
          "type": "bool"
        }
      ],
      "stateMutability": "view",
      "type": "function"
    },
    {
      "inputs": [],
      "name": "symbol",
      "outputs": [
        {
          "internalType": "string",
          "name": "",
          "type": "string"
        }
      ],
      "stateMutability": "view",
      "type": "function"
    },
    {
      "inputs": [
        {
          "internalType": "uint256",
          "name": "_tokenId",
          "type": "uint256"
        }
      ],
      "name": "tokenURI",
      "outputs": [
        {
          "internalType": "string",
          "name": "",
          "type": "string"
        }
      ],
      "stateMutability": "view",
      "type": "function"
    },
    {
      "inputs": [],
      "name": "totalSupply",
      "outputs": [
        {
          "internalType": "uint256",
          "name": "",
          "type": "uint256"
        }
      ],
      "stateMutability": "view",
      "type": "function"
    },
    {
      "inputs": [
        {
          "internalType": "address",
          "name": "from",
          "type": "address"
        },
        {
          "internalType": "address",
          "name": "to",
          "type": "address"
        },
        {
          "internalType": "uint256",
          "name": "tokenId",
          "type": "uint256"
        }
      ],
      "name": "transferFrom",
      "outputs": [],
      "stateMutability": "nonpayable",
      "type": "function"
    },
    {
      "inputs": [
        {
          "internalType": "address",
          "name": "_claimer",
          "type": "address"
        },
        {
          "internalType": "uint256",
          "name": "_quantity",
          "type": "uint256"
        },
        {
          "internalType": "address",
          "name": "_currency",
          "type": "address"
        },
        {
          "internalType": "uint256",
          "name": "_pricePerToken",
          "type": "uint256"
        },
        {
          "components": [
            {
              "internalType": "bytes32[]",
              "name": "proof",
              "type": "bytes32[]"
            },
            {
              "internalType": "uint256",
              "name": "quantityLimitPerWallet",
              "type": "uint256"
            },
            {
              "internalType": "uint256",
              "name": "pricePerToken",
              "type": "uint256"
            },
            {
              "internalType": "address",
              "name": "currency",
              "type": "address"
            }
          ],
          "internalType": "struct IDropSinglePhase.AllowlistProof",
          "name": "_allowlistProof",
          "type": "tuple"
        }
      ],
      "name": "verifyClaim",
      "outputs": [
        {
          "internalType": "bool",
          "name": "isOverride",
          "type": "bool"
        }
      ],
      "stateMutability": "view",
      "type": "function"
    }
  ],
  "bytecode": "0x60806040523480156200001157600080fd5b5060405162004b8c38038062004b8c833981016040819052620000349162000560565b60008585858585733cc6cdda760b79bafa08df41ecfa224f810dceb66001868681600290805190602001906200006c929190620003d0565b50805162000082906003906020840190620003d0565b506000805550506daaeb6d7670e522a718067333cd4e3b15620001ce5780156200011c57604051633e9f1edf60e11b81523060048201526001600160a01b03831660248201526daaeb6d7670e522a718067333cd4e90637d3e3dbe906044015b600060405180830381600087803b158015620000fd57600080fd5b505af115801562000112573d6000803e3d6000fd5b50505050620001ce565b6001600160a01b038216156200016d5760405163a0af290360e01b81523060048201526001600160a01b03831660248201526daaeb6d7670e522a718067333cd4e9063a0af290390604401620000e2565b604051632210724360e11b81523060048201526daaeb6d7670e522a718067333cd4e90634420e48690602401600060405180830381600087803b158015620001b457600080fd5b505af1158015620001c9573d6000803e3d6000fd5b505050505b50620001dc90503362000242565b620001f1836001600160801b03841662000294565b620001fc816200033f565b62000208600162000389565b5050601c805485945090925060ff19169050600183600581111562000231576200023162000610565b021790555050505050505062000662565b600980546001600160a01b038381166001600160a01b0319831681179093556040519116919082907f8292fce18fa69edf4db7b94ea2e58241df0ae57f97e0a6c9b29067028bf92d7690600090a35050565b612710811115620002dd5760405162461bcd60e51b815260206004820152600f60248201526e45786365656473206d61782062707360881b604482015260640160405180910390fd5b600a80546001600160a01b0384166001600160b01b03199091168117600160a01b61ffff851602179091556040518281527f90d7ec04bcb8978719414f82e52e4cb651db41d0e6f8cea6118c2191e6183adb9060200160405180910390a25050565b600e80546001600160a01b0319166001600160a01b0383169081179091556040517f299d17e95023f496e0ffc4909cff1a61f74bb5eb18de6f900f4155bfa1b3b33390600090a250565b6011805460ff19168215159081179091556040519081527f38475885990d8dfe9ca01f0ef160a1b5514426eab9ddbc953a3353410ba780969060200160405180910390a150565b828054620003de9062000626565b90600052602060002090601f0160209004810192826200040257600085556200044d565b82601f106200041d57805160ff19168380011785556200044d565b828001600101855582156200044d579182015b828111156200044d57825182559160200191906001019062000430565b506200045b9291506200045f565b5090565b5b808211156200045b576000815560010162000460565b634e487b7160e01b600052604160045260246000fd5b600082601f8301126200049e57600080fd5b81516001600160401b0380821115620004bb57620004bb62000476565b604051601f8301601f19908116603f01168101908282118183101715620004e657620004e662000476565b816040528381526020925086838588010111156200050357600080fd5b600091505b8382101562000527578582018301518183018401529082019062000508565b83821115620005395760008385830101525b9695505050505050565b80516001600160a01b03811681146200055b57600080fd5b919050565b600080600080600060a086880312156200057957600080fd5b85516001600160401b03808211156200059157600080fd5b6200059f89838a016200048c565b96506020880151915080821115620005b657600080fd5b50620005c5888289016200048c565b945050620005d66040870162000543565b60608701519093506001600160801b0381168114620005f457600080fd5b9150620006046080870162000543565b90509295509295909350565b634e487b7160e01b600052602160045260246000fd5b600181811c908216806200063b57607f821691505b6020821081036200065c57634e487b7160e01b600052602260045260246000fd5b50919050565b61451a80620006726000396000f3fe6080604052600436106102885760003560e01c80636f4f28371161015a578063acd083f8116100c1578063d37c353b1161007a578063d37c353b14610803578063d637ed5914610823578063e71503221461084c578063e8a3d4851461086c578063e985e9c514610881578063eec8897c146108ca57600080fd5b8063acd083f81461074e578063b24f2d3914610763578063b88d4fde1461078e578063c7db2893146107ae578063c87b56dd146107c3578063ce805642146107e357600080fd5b80639bcf7a15116101135780639bcf7a151461068c5780639fc4d68f146106ac578063a05112fc146106cc578063a22cb465146106ec578063a341793b1461070c578063ac9650d81461072157600080fd5b80636f4f2837146105e657806370a082311461060657806384bb1e42146106265780638da5cb5b14610639578063938e3d7b1461065757806395d89b411461067757600080fd5b806335b65e1f116101fe578063492e224b116101b7578063492e224b146105155780634cc157df14610535578063504c6e0114610577578063600dd5ea146105915780636352211e146105b157806363b45e2d146105d157600080fd5b806335b65e1f1461043a5780633b1475a71461047e57806341f4343414610493578063426cfaf3146104b557806342842e0e146104d557806342966c68146104f557600080fd5b806313af40351161025057806313af40351461035857806318160ddd1461037857806323b872dd1461039b5780632419f51b146103bb5780632a55205a146103db57806332f0cd641461041a57600080fd5b806301ffc9a71461028d57806306fdde03146102c2578063079fe40e146102e4578063081812fc14610316578063095ea7b314610336575b600080fd5b34801561029957600080fd5b506102ad6102a83660046137e6565b6108ea565b60405190151581526020015b60405180910390f35b3480156102ce57600080fd5b506102d761090a565b6040516102b9919061385b565b3480156102f057600080fd5b50600e546001600160a01b03165b6040516001600160a01b0390911681526020016102b9565b34801561032257600080fd5b506102fe61033136600461386e565b61099c565b34801561034257600080fd5b5061035661035136600461389e565b6109e0565b005b34801561036457600080fd5b506103566103733660046138c8565b6109f9565b34801561038457600080fd5b50600154600054035b6040519081526020016102b9565b3480156103a757600080fd5b506103566103b63660046138e3565b610a32565b3480156103c757600080fd5b5061038d6103d636600461386e565b610a5d565b3480156103e757600080fd5b506103fb6103f636600461391f565b610acb565b604080516001600160a01b0390931683526020830191909152016102b9565b34801561042657600080fd5b5061035661043536600461394f565b610b08565b34801561044657600080fd5b5061038d6104553660046138c8565b601a546000908152601b602090815260408083206001600160a01b039094168352929052205490565b34801561048a57600080fd5b50600f5461038d565b34801561049f57600080fd5b506102fe6daaeb6d7670e522a718067333cd4e81565b3480156104c157600080fd5b506103566104d036600461396c565b610b79565b3480156104e157600080fd5b506103566104f03660046138e3565b610d8e565b34801561050157600080fd5b5061035661051036600461386e565b610db3565b34801561052157600080fd5b506102ad61053036600461386e565b610dbe565b34801561054157600080fd5b5061055561055036600461386e565b610de4565b604080516001600160a01b03909316835261ffff9091166020830152016102b9565b34801561058357600080fd5b506011546102ad9060ff1681565b34801561059d57600080fd5b506103566105ac36600461389e565b610e4f565b3480156105bd57600080fd5b506102fe6105cc36600461386e565b610e81565b3480156105dd57600080fd5b50600c5461038d565b3480156105f257600080fd5b506103566106013660046138c8565b610e93565b34801561061257600080fd5b5061038d6106213660046138c8565b610ec0565b610356610634366004613aa6565b610f0e565b34801561064557600080fd5b506009546001600160a01b03166102fe565b34801561066357600080fd5b50610356610672366004613b3c565b610fe9565b34801561068357600080fd5b506102d7611016565b34801561069857600080fd5b506103566106a7366004613b84565b611025565b3480156106b857600080fd5b506102d76106c7366004613bf1565b611054565b3480156106d857600080fd5b506102d76106e736600461386e565b6111d4565b3480156106f857600080fd5b50610356610707366004613c3c565b61126e565b34801561071857600080fd5b506102d7611282565b34801561072d57600080fd5b5061074161073c366004613c58565b611299565b6040516102b99190613ccc565b34801561075a57600080fd5b5060005461038d565b34801561076f57600080fd5b50600a546001600160a01b03811690600160a01b900461ffff16610555565b34801561079a57600080fd5b506103566107a9366004613d2e565b61138d565b3480156107ba57600080fd5b506102d76113ba565b3480156107cf57600080fd5b506102d76107de36600461386e565b61141a565b3480156107ef57600080fd5b506102d76107fe366004613bf1565b611489565b34801561080f57600080fd5b5061038d61081e366004613d95565b61152c565b34801561082f57600080fd5b506108386115c4565b6040516102b9989796959493929190613e0e565b34801561085857600080fd5b506102d7610867366004613e63565b611683565b34801561087857600080fd5b506102d76116f8565b34801561088d57600080fd5b506102ad61089c366004613ebe565b6001600160a01b03918216600090815260076020908152604080832093909416825291909152205460ff1690565b3480156108d657600080fd5b506102ad6108e5366004613ef1565b611705565b60006108f582611ab7565b80610904575061090482611ab7565b92915050565b60606002805461091990613f62565b80601f016020809104026020016040519081016040528092919081815260200182805461094590613f62565b80156109925780601f1061096757610100808354040283529160200191610992565b820191906000526020600020905b81548152906001019060200180831161097557829003601f168201915b5050505050905090565b60006109a782611aec565b6109c4576040516333d1c03960e21b815260040160405180910390fd5b506000908152600660205260409020546001600160a01b031690565b816109ea81611b17565b6109f48383611bdb565b505050565b610a01611c5c565b610a265760405162461bcd60e51b8152600401610a1d90613f96565b60405180910390fd5b610a2f81611c89565b50565b826001600160a01b0381163314610a4c57610a4c33611b17565b610a57848484611cdb565b50505050565b6000610a68600c5490565b8210610aa65760405162461bcd60e51b815260206004820152600d60248201526c092dcecc2d8d2c840d2dcc8caf609b1b6044820152606401610a1d565b600c8281548110610ab957610ab9613fbe565b90600052602060002001549050919050565b600080600080610ada86610de4565b90945084925061ffff169050612710610af38287613fea565b610afd919061401f565b925050509250929050565b610b10611c5c565b610b705760405162461bcd60e51b815260206004820152602b60248201527f4e6f7420617574686f72697a656420746f20736574206f70657261746f72207260448201526a32b9ba3934b1ba34b7b71760a91b6064820152608401610a1d565b610a2f81611ce6565b610b81611c5c565b610b9d5760405162461bcd60e51b8152600401610a1d90613f96565b601a546014548215610bec575060003360405160609190911b6bffffffffffffffffffffffff191660208201524360348201526054016040516020818303038152906040528051906020012091505b8360200135811115610c355760405162461bcd60e51b81526020600482015260126024820152711b585e081cdd5c1c1b1e4818db185a5b595960721b6044820152606401610a1d565b604051806101000160405280856000013581526020018560200135815260200182815260200185606001358152602001856080013581526020018560a0013581526020018560c0016020810190610c8c91906138c8565b6001600160a01b03168152602001610ca760e0870187614033565b8080601f01602080910402602001604051908101604052809392919081815260200183838082843760009201919091525050509152508051601290815560208083015160135560408301516014556060830151601555608083015160165560a083015160175560c0830151601880546001600160a01b0319166001600160a01b0390921691909117905560e08301518051610d46926019920190613737565b505050601a8290556040517f6dab9d7d05d468100139089b2516cb8ff286c3972ff070d3b509e371f0d0d4b890610d8090869086906140a2565b60405180910390a150505050565b826001600160a01b0381163314610da857610da833611b17565b610a57848484611d2d565b610a2f816001611d48565b60008181526010602052604081208054829190610dda90613f62565b9050119050919050565b6000818152600b60209081526040808320815180830190925280546001600160a01b031680835260019091015492820192909252829115610e2b5780516020820151610e45565b600a546001600160a01b03811690600160a01b900461ffff165b9250925050915091565b610e57611c5c565b610e735760405162461bcd60e51b8152600401610a1d90613f96565b610e7d8282611efb565b5050565b6000610e8c82611fa1565b5192915050565b610e9b611c5c565b610eb75760405162461bcd60e51b8152600401610a1d90613f96565b610a2f816120bb565b60006001600160a01b038216610ee9576040516323d3ad8160e21b815260040160405180910390fd5b506001600160a01b03166000908152600560205260409020546001600160401b031690565b610f1c868686868686612105565b601a54610f2c3387878787611705565b508560126002016000828254610f42919061416e565b90915550506000818152601b6020908152604080832033845290915281208054889290610f7090849061416e565b90915550610f839050600087878761216c565b6000610f8f888861221e565b9050806001600160a01b038916336001600160a01b03167fff097c7d8b1957a4ff09ef1361b5fb54dcede3941ba836d0beb9d10bec725de68a604051610fd791815260200190565b60405180910390a45050505050505050565b610ff1611c5c565b61100d5760405162461bcd60e51b8152600401610a1d90613f96565b610a2f8161222b565b60606003805461091990613f62565b61102d611c5c565b6110495760405162461bcd60e51b8152600401610a1d90613f96565b6109f483838361230d565b60008381526010602052604081208054606092919061107290613f62565b80601f016020809104026020016040519081016040528092919081815260200182805461109e90613f62565b80156110eb5780601f106110c0576101008083540402835291602001916110eb565b820191906000526020600020905b8154815290600101906020018083116110ce57829003601f168201915b5050505050905080516000036111375760405162461bcd60e51b8152602060048201526011602482015270139bdd1a1a5b99c81d1bc81c995d99585b607a1b6044820152606401610a1d565b6000808280602001905181019061114e9190614186565b9150915061115d828787611683565b935080848787466040516020016111779493929190614206565b60405160208183030381529060405280519060200120146111ca5760405162461bcd60e51b815260206004820152600d60248201526c496e636f7272656374206b657960981b6044820152606401610a1d565b5050509392505050565b601060205260009081526040902080546111ed90613f62565b80601f016020809104026020016040519081016040528092919081815260200182805461121990613f62565b80156112665780601f1061123b57610100808354040283529160200191611266565b820191906000526020600020905b81548152906001019060200180831161124957829003601f168201915b505050505081565b8161127881611b17565b6109f483836123d6565b601c546060906112949060ff1661246b565b905090565b6060816001600160401b038111156112b3576112b36139db565b6040519080825280602002602001820160405280156112e657816020015b60608152602001906001900390816112d15790505b50905060005b82811015611386576113563085858481811061130a5761130a613fbe565b905060200281019061131c9190614033565b8080601f0160208091040260200160405190810160405280939291908181526020018383808284376000920191909152506125fc92505050565b82828151811061136857611368613fbe565b6020026020010181905250808061137e9061422f565b9150506112ec565b5092915050565b836001600160a01b03811633146113a7576113a733611b17565b6113b385858585612628565b5050505050565b606060405180606001604052806031815260200161446d60319139601c546113f59060ff1660058111156113f0576113f0614248565b61266c565b60405160200161140692919061425e565b604051602081830303815290604052905090565b60606000611427836126fe565b509050600061143584612803565b905061144082610dbe565b1561146e5780604051602001611456919061428d565b60405160208183030381529060405292505050919050565b8061147885612964565b60405160200161145692919061425e565b6060611493611c5c565b6114af5760405162461bcd60e51b8152600401610a1d90613f96565b60006114ba85610a5d565b90506114c7818585611054565b91506114e28160405180602001604052806000815250612a6c565b6114ec8183612a8b565b847f6df1d8db2a036436ffe0b2d1833f2c5f1e624818dfce2578c0faa4b83ef9998d8360405161151c919061385b565b60405180910390a2509392505050565b600081156115ad57600080611543848601866142b2565b91509150815160001415801561155857508015155b156115aa576115aa88600f5461156e919061416e565b86868080601f016020809104026020016040519081016040528093929190818152602001838380828437600092019190915250612a6c92505050565b50505b6115ba8686868686612aaa565b9695505050505050565b60128054601354601454601554601654601754601854601980549798969795969495939492936001600160a01b03909216929161160090613f62565b80601f016020809104026020016040519081016040528092919081815260200182805461162c90613f62565b80156116795780601f1061164e57610100808354040283529160200191611679565b820191906000526020600020905b81548152906001019060200180831161165c57829003601f168201915b5050505050905088565b8251604080518083016020019091528181529060005b818110156116ef5760008585836040516020016116b8939291906142f6565b60408051601f198184030181529190528051602091820120888401820151188584018201526116e891508261416e565b9050611699565b50509392505050565b600880546111ed90613f62565b60408051610100810182526012805482526013546020830152601454928201929092526015546060820152601654608082015260175460a08201526018546001600160a01b031660c082015260198054600093849392909160e08401919061176c90613f62565b80601f016020809104026020016040519081016040528092919081815260200182805461179890613f62565b80156117e55780601f106117ba576101008083540402835291602001916117e5565b820191906000526020600020905b8154815290600101906020018083116117c857829003601f168201915b50505091909252505050606081015160a082015160c083015160808401519394509192909190156118ca576118c661181d8780614308565b80806020026020016040519081016040528093929190818152602001838360200280828437600092019190915250505060808088015191508d9060208b01359060408c013590611872908d0160608e016138c8565b6040516bffffffffffffffffffffffff19606095861b811660208301526034820194909452605481019290925290921b16607482015260880160405160208183030381529060405280519060200120612bb7565b5094505b84156119515785602001356000036118e257826118e8565b85602001355b92506000198660400135036118fd5781611903565b85604001355b91506000198660400135141580156119345750600061192860808801606089016138c8565b6001600160a01b031614155b61193e578061194e565b61194e60808701606088016138c8565b90505b601a546000908152601b602090815260408083206001600160a01b03808f1685529252909120549089811690831614158061198c5750828814155b156119cc5760405162461bcd60e51b815260206004820152601060248201526f2150726963654f7243757272656e637960801b6044820152606401610a1d565b8915806119e15750836119df828c61416e565b115b15611a175760405162461bcd60e51b8152600401610a1d906020808252600490820152632151747960e01b604082015260600190565b84602001518a8660400151611a2c919061416e565b1115611a675760405162461bcd60e51b815260206004820152600a602482015269214d6178537570706c7960b01b6044820152606401610a1d565b8451421015611aa95760405162461bcd60e51b815260206004820152600e60248201526d18d85b9d0818db185a5b481e595d60921b6044820152606401610a1d565b505050505095945050505050565b60006001600160e01b03198216630c934a3560e31b148061090457506301ffc9a760e01b6001600160e01b0319831614610904565b6000805482108015610904575050600090815260046020526040902054600160e01b900460ff161590565b60115460ff1615610a2f576daaeb6d7670e522a718067333cd4e3b15610a2f57604051633185c44d60e21b81523060048201526001600160a01b03821660248201526daaeb6d7670e522a718067333cd4e9063c617113490604401602060405180830381865afa158015611b8f573d6000803e3d6000fd5b505050506040513d601f19601f82011682018060405250810190611bb39190614351565b610a2f57604051633b79c77360e21b81526001600160a01b0382166004820152602401610a1d565b6000611be682610e81565b9050806001600160a01b0316836001600160a01b031603611c1a5760405163250fdee360e21b815260040160405180910390fd5b336001600160a01b03821614611c5157611c34813361089c565b611c51576040516367d9dca160e11b815260040160405180910390fd5b6109f4838383612c85565b6000611c706009546001600160a01b031690565b6001600160a01b0316336001600160a01b031614905090565b600980546001600160a01b038381166001600160a01b0319831681179093556040519116919082907f8292fce18fa69edf4db7b94ea2e58241df0ae57f97e0a6c9b29067028bf92d7690600090a35050565b6109f4838383612ce1565b6011805460ff19168215159081179091556040519081527f38475885990d8dfe9ca01f0ef160a1b5514426eab9ddbc953a3353410ba780969060200160405180910390a150565b6109f48383836040518060200160405280600081525061138d565b6000611d5383611fa1565b80519091508215611db9576000336001600160a01b0383161480611d7c5750611d7c823361089c565b80611d97575033611d8c8661099c565b6001600160a01b0316145b905080611db757604051632ce44b5f60e11b815260040160405180910390fd5b505b611dc560008583612c85565b6001600160a01b0380821660008181526005602090815260408083208054600160801b6000196001600160401b0380841691909101811667ffffffffffffffff198416811783900482166001908101831690930277ffffffffffffffff0000000000000000ffffffffffffffff19909416179290921783558b86526004909452828520805460ff60e01b1942909316600160a01b026001600160e01b03199091169097179690961716600160e01b178555918901808452922080549194909116611ec3576000548214611ec357805460208701516001600160401b0316600160a01b026001600160e01b03199091166001600160a01b038716171781555b5050604051869250600091506001600160a01b038416906000805160206144c5833981519152908390a4505060018054810190555050565b612710811115611f3f5760405162461bcd60e51b815260206004820152600f60248201526e45786365656473206d61782062707360881b6044820152606401610a1d565b600a80546001600160a01b0384166001600160b01b03199091168117600160a01b61ffff851602179091556040518281527f90d7ec04bcb8978719414f82e52e4cb651db41d0e6f8cea6118c2191e6183adb9060200160405180910390a25050565b6040805160608101825260008082526020820181905291810191909152816000548110156120a257600081815260046020908152604091829020825160608101845290546001600160a01b0381168252600160a01b81046001600160401b031692820192909252600160e01b90910460ff161515918101829052906120a05780516001600160a01b031615612037579392505050565b5060001901600081815260046020908152604091829020825160608101845290546001600160a01b038116808352600160a01b82046001600160401b031693830193909352600160e01b900460ff161515928101929092521561209b579392505050565b612037565b505b604051636f96cda160e11b815260040160405180910390fd5b600e80546001600160a01b0319166001600160a01b0383169081179091556040517f299d17e95023f496e0ffc4909cff1a61f74bb5eb18de6f900f4155bfa1b3b33390600090a250565b600f5485600054612116919061416e565b11156121645760405162461bcd60e51b815260206004820152601860248201527f4e6f7420656e6f756768206d696e74656420746f6b656e7300000000000000006044820152606401610a1d565b505050505050565b8015610a5757600061217e8285613fea565b905073eeeeeeeeeeeeeeeeeeeeeeeeeeeeeeeeeeeeeeed196001600160a01b038416016121ec578034146121ec5760405162461bcd60e51b81526020600482015260156024820152744d7573742073656e6420746f74616c20707269636560581b6044820152606401610a1d565b60006001600160a01b038616156122035785612210565b600e546001600160a01b03165b905061216484338385612eba565b6000546109048383612f00565b60006008805461223a90613f62565b80601f016020809104026020016040519081016040528092919081815260200182805461226690613f62565b80156122b35780601f10612288576101008083540402835291602001916122b3565b820191906000526020600020905b81548152906001019060200180831161229657829003601f168201915b505085519394506122cf93600893506020870192509050613737565b507fc9c7c3fe08b88b4df9d4d47ef47d2c43d55c025a0ba88ca442580ed9e7348a16818360405161230192919061436e565b60405180910390a15050565b6127108111156123515760405162461bcd60e51b815260206004820152600f60248201526e45786365656473206d61782062707360881b6044820152606401610a1d565b6040805180820182526001600160a01b0384811680835260208084018681526000898152600b8352869020945185546001600160a01b031916941693909317845591516001909301929092559151838152909185917f7365cf4122f072a3365c20d54eff9b38d73c096c28e1892ec8f5b0e403a0f12d910160405180910390a3505050565b336001600160a01b038316036123ff5760405163b06307db60e01b815260040160405180910390fd5b3360008181526007602090815260408083206001600160a01b03871680855290835292819020805460ff191686151590811790915590519081529192917f17307eab39ab6107e8899845ad3d59bd9653f200f220920489ca2b5937696c31910160405180910390a35050565b6060600682600581111561248157612481614248565b60ff16111561248f57600080fd5b8160058111156124a1576124a1614248565b6000036124ca5750506040805180820190915260068152655055424c494360d01b602082015290565b8160058111156124dc576124dc614248565b6001036125085750506040805180820190915260098152684558434c555349564560b81b602082015290565b81600581111561251a5761251a614248565b60020361254757505060408051808201909152600a81526910d3d353515490d2505360b21b602082015290565b81600581111561255957612559614248565b60030361258e575050604080518082019091526012815271434f4d4d45524349414c5f4e4f5f4841544560701b602082015290565b8160058111156125a0576125a0614248565b6004036125cb57505060408051808201909152600881526714115494d3d3905360c21b602082015290565b505060408051808201909152601081526f504552534f4e414c5f4e4f5f4841544560801b602082015290565b919050565b6060612621838360405180606001604052806027815260200161449e60279139612f1a565b9392505050565b612633848484612ce1565b6001600160a01b0383163b15610a575761264f84848484612fed565b610a57576040516368d2bf6b60e11b815260040160405180910390fd5b60606000612679836130d8565b60010190506000816001600160401b03811115612698576126986139db565b6040519080825280601f01601f1916602001820160405280156126c2576020820181803683370190505b5090508181016020015b600019016f181899199a1a9b1b9c1cb0b131b232b360811b600a86061a8153600a85049450846126cc57509392505050565b600080600061270c600c5490565b90506000600c80548060200260200160405190810160405280929190818152602001828054801561275c57602002820191906000526020600020905b815481526020019060010190808311612748575b5050505050905060005b828110156127c85781818151811061278057612780613fbe565b60200260200101518610156127b6578093508181815181106127a4576127a4613fbe565b60200260200101519450505050915091565b6127c160018261416e565b9050612766565b5060405162461bcd60e51b815260206004820152600f60248201526e125b9d985b1a59081d1bdad95b9259608a1b6044820152606401610a1d565b60606000612810600c5490565b90506000600c80548060200260200160405190810160405280929190818152602001828054801561286057602002820191906000526020600020905b81548152602001906001019080831161284c575b5050505050905060005b828110156127c85781818151811061288457612884613fbe565b602002602001015185101561295257600d60008383815181106128a9576128a9613fbe565b6020026020010151815260200190815260200160002080546128ca90613f62565b80601f01602080910402602001604051908101604052809291908181526020018280546128f690613f62565b80156129435780601f1061291857610100808354040283529160200191612943565b820191906000526020600020905b81548152906001019060200180831161292657829003601f168201915b50505050509350505050919050565b61295d60018261416e565b905061286a565b60608160000361298b5750506040805180820190915260018152600360fc1b602082015290565b8160005b81156129b5578061299f8161422f565b91506129ae9050600a8361401f565b915061298f565b6000816001600160401b038111156129cf576129cf6139db565b6040519080825280601f01601f1916602001820160405280156129f9576020820181803683370190505b5090505b8415612a6457612a0e60018361439c565b9150612a1b600a866143b3565b612a2690603061416e565b60f81b818381518110612a3b57612a3b613fbe565b60200101906001600160f81b031916908160001a905350612a5d600a8661401f565b94506129fd565b949350505050565b600082815260106020908152604090912082516109f492840190613737565b6000828152600d6020908152604090912082516109f492840190613737565b6000612ab4611c5c565b612ad05760405162461bcd60e51b8152600401610a1d90613f96565b85600003612b085760405162461bcd60e51b81526020600482015260056024820152640c08185b5d60da1b6044820152606401610a1d565b6000600f549050612b50818888888080601f0160208091040260200160405190810160405280939291908181526020018383808284376000920191909152506131b092505050565b600f919091559150807f2a0365091ef1a40953c670dce28177e37520648a6fdc91506bffac0ab045570d6001612b868a8461416e565b612b90919061439c565b88888888604051612ba59594939291906143c7565b60405180910390a25095945050505050565b6000808281805b8751811015612c7957612bd2600283613fea565b91506000888281518110612be857612be8613fbe565b60200260200101519050808411612c2a576040805160208101869052908101829052606001604051602081830303815290604052805190602001209350612c66565b6040805160208101839052908101859052606001604051602081830303815290604052805190602001209350600183612c63919061416e565b92505b5080612c718161422f565b915050612bbe565b50941495939450505050565b60008281526006602052604080822080546001600160a01b0319166001600160a01b0387811691821790925591518593918516917f8c5be1e5ebec7d5bd14f71427d1e84f3dd0314c0f7b2291e5b200ac8c7c3b92591a4505050565b6000612cec82611fa1565b9050836001600160a01b031681600001516001600160a01b031614612d235760405162a1148160e81b815260040160405180910390fd5b6000336001600160a01b0386161480612d415750612d41853361089c565b80612d5c575033612d518461099c565b6001600160a01b0316145b905080612d7c57604051632ce44b5f60e11b815260040160405180910390fd5b6001600160a01b038416612da357604051633a954ecd60e21b815260040160405180910390fd5b612daf60008487612c85565b6001600160a01b038581166000908152600560209081526040808320805467ffffffffffffffff198082166001600160401b0392831660001901831617909255898616808652838620805493841693831660019081018416949094179055898652600490945282852080546001600160e01b031916909417600160a01b42909216919091021783558701808452922080549193909116612e83576000548214612e8357805460208601516001600160401b0316600160a01b026001600160e01b03199091166001600160a01b038a16171781555b50505082846001600160a01b0316866001600160a01b03166000805160206144c583398151915260405160405180910390a46113b3565b8015610a575773eeeeeeeeeeeeeeeeeeeeeeeeeeeeeeeeeeeeeeed196001600160a01b03851601612ef457612eef828261321d565b610a57565b610a57848484846132c0565b610e7d828260405180602001604052806000815250613313565b60606001600160a01b0384163b612f825760405162461bcd60e51b815260206004820152602660248201527f416464726573733a2064656c65676174652063616c6c20746f206e6f6e2d636f6044820152651b9d1c9858dd60d21b6064820152608401610a1d565b600080856001600160a01b031685604051612f9d9190614400565b600060405180830381855af49150503d8060008114612fd8576040519150601f19603f3d011682016040523d82523d6000602084013e612fdd565b606091505b50915091506115ba8282866134b6565b604051630a85bd0160e11b81526000906001600160a01b0385169063150b7a029061302290339089908890889060040161441c565b6020604051808303816000875af192505050801561305d575060408051601f3d908101601f1916820190925261305a9181019061444f565b60015b6130bb573d80801561308b576040519150601f19603f3d011682016040523d82523d6000602084013e613090565b606091505b5080516000036130b3576040516368d2bf6b60e11b815260040160405180910390fd5b805181602001fd5b6001600160e01b031916630a85bd0160e11b149050949350505050565b60008072184f03e93ff9f4daa797ed6e38ed64bf6a1f0160401b83106131175772184f03e93ff9f4daa797ed6e38ed64bf6a1f0160401b830492506040015b6d04ee2d6d415b85acef81000000008310613143576d04ee2d6d415b85acef8100000000830492506020015b662386f26fc10000831061316157662386f26fc10000830492506010015b6305f5e1008310613179576305f5e100830492506008015b612710831061318d57612710830492506004015b6064831061319f576064830492506002015b600a83106109045760010192915050565b6000806131bd848661416e565b600c8054600181019091557fdf6966c971051c3d54ec59162606531493a51404a002842f56009d7e5cf4a8c7018190556000818152600d602090815260409091208551929450849350613214929091860190613737565b50935093915050565b6000826001600160a01b03168260405160006040518083038185875af1925050503d806000811461326a576040519150601f19603f3d011682016040523d82523d6000602084013e61326f565b606091505b50509050806109f45760405162461bcd60e51b815260206004820152601c60248201527f6e617469766520746f6b656e207472616e73666572206661696c6564000000006044820152606401610a1d565b816001600160a01b0316836001600160a01b03160315610a5757306001600160a01b038416036132fe57612eef6001600160a01b03851683836134ef565b610a576001600160a01b038516848484613552565b6000546001600160a01b03841661333c57604051622e076360e81b815260040160405180910390fd5b8260000361335d5760405163b562e8dd60e01b815260040160405180910390fd5b6001600160a01b038416600081815260056020908152604080832080546fffffffffffffffffffffffffffffffff1981166001600160401b038083168b0181169182176801000000000000000067ffffffffffffffff1990941690921783900481168b01811690920217909155858452600490925290912080546001600160e01b0319168317600160a01b42909316929092029190911790558190818501903b15613473575b60405182906001600160a01b038816906000906000805160206144c5833981519152908290a461343c6000878480600101955087612fed565b613459576040516368d2bf6b60e11b815260040160405180910390fd5b80821061340357826000541461346e57600080fd5b6134a6565b5b6040516001830192906001600160a01b038816906000906000805160206144c5833981519152908290a4808210613474575b506000908155610a579085838684565b606083156134c5575081612621565b8251156134d55782518084602001fd5b8160405162461bcd60e51b8152600401610a1d919061385b565b6040516001600160a01b0383166024820152604481018290526109f490849063a9059cbb60e01b906064015b60408051601f198184030181529190526020810180516001600160e01b03166001600160e01b03199093169290921790915261358a565b6040516001600160a01b0380851660248301528316604482015260648101829052610a579085906323b872dd60e01b9060840161351b565b60006135df826040518060400160405280602081526020017f5361666545524332303a206c6f772d6c6576656c2063616c6c206661696c6564815250856001600160a01b031661365c9092919063ffffffff16565b8051909150156109f457808060200190518101906135fd9190614351565b6109f45760405162461bcd60e51b815260206004820152602a60248201527f5361666545524332303a204552433230206f7065726174696f6e20646964206e6044820152691bdd081cdd58d8d9595960b21b6064820152608401610a1d565b6060612a648484600085856001600160a01b0385163b6136be5760405162461bcd60e51b815260206004820152601d60248201527f416464726573733a2063616c6c20746f206e6f6e2d636f6e74726163740000006044820152606401610a1d565b600080866001600160a01b031685876040516136da9190614400565b60006040518083038185875af1925050503d8060008114613717576040519150601f19603f3d011682016040523d82523d6000602084013e61371c565b606091505b509150915061372c8282866134b6565b979650505050505050565b82805461374390613f62565b90600052602060002090601f01602090048101928261376557600085556137ab565b82601f1061377e57805160ff19168380011785556137ab565b828001600101855582156137ab579182015b828111156137ab578251825591602001919060010190613790565b506137b79291506137bb565b5090565b5b808211156137b757600081556001016137bc565b6001600160e01b031981168114610a2f57600080fd5b6000602082840312156137f857600080fd5b8135612621816137d0565b60005b8381101561381e578181015183820152602001613806565b83811115610a575750506000910152565b60008151808452613847816020860160208601613803565b601f01601f19169290920160200192915050565b602081526000612621602083018461382f565b60006020828403121561388057600080fd5b5035919050565b80356001600160a01b03811681146125f757600080fd5b600080604083850312156138b157600080fd5b6138ba83613887565b946020939093013593505050565b6000602082840312156138da57600080fd5b61262182613887565b6000806000606084860312156138f857600080fd5b61390184613887565b925061390f60208501613887565b9150604084013590509250925092565b6000806040838503121561393257600080fd5b50508035926020909101359150565b8015158114610a2f57600080fd5b60006020828403121561396157600080fd5b813561262181613941565b6000806040838503121561397f57600080fd5b82356001600160401b0381111561399557600080fd5b830161010081860312156139a857600080fd5b915060208301356139b881613941565b809150509250929050565b6000608082840312156139d557600080fd5b50919050565b634e487b7160e01b600052604160045260246000fd5b604051601f8201601f191681016001600160401b0381118282101715613a1957613a196139db565b604052919050565b60006001600160401b03821115613a3a57613a3a6139db565b50601f01601f191660200190565b6000613a5b613a5684613a21565b6139f1565b9050828152838383011115613a6f57600080fd5b828260208301376000602084830101529392505050565b600082601f830112613a9757600080fd5b61262183833560208501613a48565b60008060008060008060c08789031215613abf57600080fd5b613ac887613887565b955060208701359450613add60408801613887565b93506060870135925060808701356001600160401b0380821115613b0057600080fd5b613b0c8a838b016139c3565b935060a0890135915080821115613b2257600080fd5b50613b2f89828a01613a86565b9150509295509295509295565b600060208284031215613b4e57600080fd5b81356001600160401b03811115613b6457600080fd5b8201601f81018413613b7557600080fd5b612a6484823560208401613a48565b600080600060608486031215613b9957600080fd5b8335925061390f60208501613887565b60008083601f840112613bbb57600080fd5b5081356001600160401b03811115613bd257600080fd5b602083019150836020828501011115613bea57600080fd5b9250929050565b600080600060408486031215613c0657600080fd5b8335925060208401356001600160401b03811115613c2357600080fd5b613c2f86828701613ba9565b9497909650939450505050565b60008060408385031215613c4f57600080fd5b6139a883613887565b60008060208385031215613c6b57600080fd5b82356001600160401b0380821115613c8257600080fd5b818501915085601f830112613c9657600080fd5b813581811115613ca557600080fd5b8660208260051b8501011115613cba57600080fd5b60209290920196919550909350505050565b6000602080830181845280855180835260408601915060408160051b870101925083870160005b82811015613d2157603f19888603018452613d0f85835161382f565b94509285019290850190600101613cf3565b5092979650505050505050565b60008060008060808587031215613d4457600080fd5b613d4d85613887565b9350613d5b60208601613887565b92506040850135915060608501356001600160401b03811115613d7d57600080fd5b613d8987828801613a86565b91505092959194509250565b600080600080600060608688031215613dad57600080fd5b8535945060208601356001600160401b0380821115613dcb57600080fd5b613dd789838a01613ba9565b90965094506040880135915080821115613df057600080fd5b50613dfd88828901613ba9565b969995985093965092949392505050565b60006101008a83528960208401528860408401528760608401528660808401528560a084015260018060a01b03851660c08401528060e0840152613e548184018561382f565b9b9a5050505050505050505050565b600080600060408486031215613e7857600080fd5b83356001600160401b0380821115613e8f57600080fd5b613e9b87838801613a86565b94506020860135915080821115613eb157600080fd5b50613c2f86828701613ba9565b60008060408385031215613ed157600080fd5b613eda83613887565b9150613ee860208401613887565b90509250929050565b600080600080600060a08688031215613f0957600080fd5b613f1286613887565b945060208601359350613f2760408701613887565b92506060860135915060808601356001600160401b03811115613f4957600080fd5b613f55888289016139c3565b9150509295509295909350565b600181811c90821680613f7657607f821691505b6020821081036139d557634e487b7160e01b600052602260045260246000fd5b6020808252600e908201526d139bdd08185d5d1a1bdc9a5e995960921b604082015260600190565b634e487b7160e01b600052603260045260246000fd5b634e487b7160e01b600052601160045260246000fd5b600081600019048311821515161561400457614004613fd4565b500290565b634e487b7160e01b600052601260045260246000fd5b60008261402e5761402e614009565b500490565b6000808335601e1984360301811261404a57600080fd5b8301803591506001600160401b0382111561406457600080fd5b602001915036819003821315613bea57600080fd5b81835281816020850137506000828201602090810191909152601f909101601f19169091010190565b60408152823560408201526020830135606082015260408301356080820152606083013560a0820152608083013560c082015260a083013560e082015260006140ed60c08501613887565b6001600160a01b03166101008381019190915260e08501359036869003601e1901821261411957600080fd5b9085019081356001600160401b0381111561413357600080fd5b80360387131561414257600080fd5b8161012086015261415b61014086018260208601614079565b9350505050612621602083018415159052565b6000821982111561418157614181613fd4565b500190565b6000806040838503121561419957600080fd5b82516001600160401b038111156141af57600080fd5b8301601f810185136141c057600080fd5b80516141ce613a5682613a21565b8181528660208385010111156141e357600080fd5b6141f4826020830160208601613803565b60209590950151949694955050505050565b60008551614218818460208a01613803565b820184868237909301918252506020019392505050565b60006001820161424157614241613fd4565b5060010190565b634e487b7160e01b600052602160045260246000fd5b60008351614270818460208801613803565b835190830190614284818360208801613803565b01949350505050565b6000825161429f818460208701613803565b600360fc1b920191825250600101919050565b600080604083850312156142c557600080fd5b82356001600160401b038111156142db57600080fd5b6142e785828601613a86565b95602094909401359450505050565b82848237909101908152602001919050565b6000808335601e1984360301811261431f57600080fd5b8301803591506001600160401b0382111561433957600080fd5b6020019150600581901b3603821315613bea57600080fd5b60006020828403121561436357600080fd5b815161262181613941565b604081526000614381604083018561382f565b8281036020840152614393818561382f565b95945050505050565b6000828210156143ae576143ae613fd4565b500390565b6000826143c2576143c2614009565b500690565b8581526060602082015260006143e1606083018688614079565b82810360408401526143f4818587614079565b98975050505050505050565b60008251614412818460208701613803565b9190910192915050565b6001600160a01b03858116825284166020820152604081018390526080606082018190526000906115ba9083018461382f565b60006020828403121561446157600080fd5b8151612621816137d056fe61723a2f2f7a6d63315754737049684679565938326277664149634945784c4648356c55634848554e307758673457382f416464726573733a206c6f772d6c6576656c2064656c65676174652063616c6c206661696c6564ddf252ad1be2c89b69c2b068fc378daa952ba7f163c4a11628f55a4df523b3efa2646970667358221220e43d528fa372c73ff32c82341a64900f67831108862c165f6dfef4274fa8e29b64736f6c634300080d0033",
  "linkReferences": {},
  "deployedLinkReferences": {}
}