{
  "_format": "hh-sol-artifact-1",
  "contractName": "CantBeEvil",
  "sourceName": "@a16z/contracts/licenses/CantBeEvil.sol",
  "abi": [
    {
      "inputs": [
        {
          "internalType": "enum LicenseVersion",
          "name": "_licenseVersion",
          "type": "uint8"
        }
      ],
      "stateMutability": "nonpayable",
      "type": "constructor"
    },
    {
      "inputs": [],
      "name": "getLicenseName",
      "outputs": [
        {
          "internalType": "string",
          "name": "",
          "type": "string"
        }
      ],
      "stateMutability": "view",
      "type": "function"
    },
    {
      "inputs": [],
      "name": "getLicenseURI",
      "outputs": [
        {
          "internalType": "string",
          "name": "",
          "type": "string"
        }
      ],
      "stateMutability": "view",
      "type": "function"
    },
    {
      "inputs": [
        {
          "internalType": "bytes4",
          "name": "interfaceId",
          "type": "bytes4"
        }
      ],
      "name": "supportsInterface",
      "outputs": [
        {
          "internalType": "bool",
          "name": "",
          "type": "bool"
        }
      ],
      "stateMutability": "view",
      "type": "function"
    }
  ],
  "bytecode": "0x608060405234801561001057600080fd5b5060405161062c38038061062c83398101604081905261002f91610059565b6000805482919060ff1916600183600581111561004e5761004e610081565b021790555050610097565b60006020828403121561006b57600080fd5b81516006811061007a57600080fd5b9392505050565b634e487b7160e01b600052602160045260246000fd5b610586806100a66000396000f3fe608060405234801561001057600080fd5b50600436106100415760003560e01c806301ffc9a714610046578063a341793b1461006e578063c7db289314610083575b600080fd5b610059610054366004610430565b61008b565b60405190151581526020015b60405180910390f35b6100766100c2565b6040516100659190610491565b6100766100d9565b60006001600160e01b03198216630c934a3560e31b14806100bc57506301ffc9a760e01b6001600160e01b03198316145b92915050565b6000546060906100d49060ff16610139565b905090565b6060604051806060016040528060318152602001610520603191396000546101149060ff16600581111561010f5761010f6104c4565b6102c5565b6040516020016101259291906104da565b604051602081830303815290604052905090565b6060600682600581111561014f5761014f6104c4565b60ff16111561015d57600080fd5b81600581111561016f5761016f6104c4565b6000036101985750506040805180820190915260068152655055424c494360d01b602082015290565b8160058111156101aa576101aa6104c4565b6001036101d65750506040805180820190915260098152684558434c555349564560b81b602082015290565b8160058111156101e8576101e86104c4565b60020361021557505060408051808201909152600a81526910d3d353515490d2505360b21b602082015290565b816005811115610227576102276104c4565b60030361025c575050604080518082019091526012815271434f4d4d45524349414c5f4e4f5f4841544560701b602082015290565b81600581111561026e5761026e6104c4565b60040361029957505060408051808201909152600881526714115494d3d3905360c21b602082015290565b505060408051808201909152601081526f504552534f4e414c5f4e4f5f4841544560801b602082015290565b606060006102d283610358565b600101905060008167ffffffffffffffff8111156102f2576102f2610509565b6040519080825280601f01601f19166020018201604052801561031c576020820181803683370190505b5090508181016020015b600019016f181899199a1a9b1b9c1cb0b131b232b360811b600a86061a8153600a850494508461032657509392505050565b60008072184f03e93ff9f4daa797ed6e38ed64bf6a1f0160401b83106103975772184f03e93ff9f4daa797ed6e38ed64bf6a1f0160401b830492506040015b6d04ee2d6d415b85acef810000000083106103c3576d04ee2d6d415b85acef8100000000830492506020015b662386f26fc1000083106103e157662386f26fc10000830492506010015b6305f5e10083106103f9576305f5e100830492506008015b612710831061040d57612710830492506004015b6064831061041f576064830492506002015b600a83106100bc5760010192915050565b60006020828403121561044257600080fd5b81356001600160e01b03198116811461045a57600080fd5b9392505050565b60005b8381101561047c578181015183820152602001610464565b8381111561048b576000848401525b50505050565b60208152600082518060208401526104b0816040850160208701610461565b601f01601f19169190910160400192915050565b634e487b7160e01b600052602160045260246000fd5b600083516104ec818460208801610461565b835190830190610500818360208801610461565b01949350505050565b634e487b7160e01b600052604160045260246000fdfe61723a2f2f7a6d63315754737049684679565938326277664149634945784c4648356c55634848554e307758673457382fa26469706673582212200f02bc83476fd55d721d2641a0918a5807d86eea6aea6412be1b996df8c3fb5464736f6c634300080d0033",
  "linkReferences": {},
  "deployedLinkReferences": {}
}