{
  "_format": "hh-sol-artifact-1",
  "contractName": "ERC721Drop",
  "sourceName": "@thirdweb-dev/contracts/base/ERC721Drop.sol",
  "abi": [
    {
      "inputs": [
        {
          "internalType": "string",
          "name": "_name",
          "type": "string"
        },
        {
          "internalType": "string",
          "name": "_symbol",
          "type": "string"
        },
        {
          "internalType": "address",
          "name": "_royaltyRecipient",
          "type": "address"
        },
        {
          "internalType": "uint128",
          "name": "_royaltyBps",
          "type": "uint128"
        },
        {
          "internalType": "address",
          "name": "_primarySaleRecipient",
          "type": "address"
        }
      ],
      "stateMutability": "nonpayable",
      "type": "constructor"
    },
    {
      "inputs": [],
      "name": "ApprovalCallerNotOwnerNorApproved",
      "type": "error"
    },
    {
      "inputs": [],
      "name": "ApprovalQueryForNonexistentToken",
      "type": "error"
    },
    {
      "inputs": [],
      "name": "ApprovalToCurrentOwner",
      "type": "error"
    },
    {
      "inputs": [],
      "name": "ApproveToCaller",
      "type": "error"
    },
    {
      "inputs": [],
      "name": "BalanceQueryForZeroAddress",
      "type": "error"
    },
    {
      "inputs": [],
      "name": "MintToZeroAddress",
      "type": "error"
    },
    {
      "inputs": [],
      "name": "MintZeroQuantity",
      "type": "error"
    },
    {
      "inputs": [
        {
          "internalType": "address",
          "name": "operator",
          "type": "address"
        }
      ],
      "name": "OperatorNotAllowed",
      "type": "error"
    },
    {
      "inputs": [],
      "name": "OwnerQueryForNonexistentToken",
      "type": "error"
    },
    {
      "inputs": [],
      "name": "TransferCallerNotOwnerNorApproved",
      "type": "error"
    },
    {
      "inputs": [],
      "name": "TransferFromIncorrectOwner",
      "type": "error"
    },
    {
      "inputs": [],
      "name": "TransferToNonERC721ReceiverImplementer",
      "type": "error"
    },
    {
      "inputs": [],
      "name": "TransferToZeroAddress",
      "type": "error"
    },
    {
      "inputs": [],
      "name": "URIQueryForNonexistentToken",
      "type": "error"
    },
    {
      "anonymous": false,
      "inputs": [
        {
          "indexed": true,
          "internalType": "address",
          "name": "owner",
          "type": "address"
        },
        {
          "indexed": true,
          "internalType": "address",
          "name": "approved",
          "type": "address"
        },
        {
          "indexed": true,
          "internalType": "uint256",
          "name": "tokenId",
          "type": "uint256"
        }
      ],
      "name": "Approval",
      "type": "event"
    },
    {
      "anonymous": false,
      "inputs": [
        {
          "indexed": true,
          "internalType": "address",
          "name": "owner",
          "type": "address"
        },
        {
          "indexed": true,
          "internalType": "address",
          "name": "operator",
          "type": "address"
        },
        {
          "indexed": false,
          "internalType": "bool",
          "name": "approved",
          "type": "bool"
        }
      ],
      "name": "ApprovalForAll",
      "type": "event"
    },
    {
      "anonymous": false,
      "inputs": [
        {
          "components": [
            {
              "internalType": "uint256",
              "name": "startTimestamp",
              "type": "uint256"
            },
            {
              "internalType": "uint256",
              "name": "maxClaimableSupply",
              "type": "uint256"
            },
            {
              "internalType": "uint256",
              "name": "supplyClaimed",
              "type": "uint256"
            },
            {
              "internalType": "uint256",
              "name": "quantityLimitPerWallet",
              "type": "uint256"
            },
            {
              "internalType": "bytes32",
              "name": "merkleRoot",
              "type": "bytes32"
            },
            {
              "internalType": "uint256",
              "name": "pricePerToken",
              "type": "uint256"
            },
            {
              "internalType": "address",
              "name": "currency",
              "type": "address"
            },
            {
              "internalType": "string",
              "name": "metadata",
              "type": "string"
            }
          ],
          "indexed": false,
          "internalType": "struct IClaimCondition.ClaimCondition",
          "name": "condition",
          "type": "tuple"
        },
        {
          "indexed": false,
          "internalType": "bool",
          "name": "resetEligibility",
          "type": "bool"
        }
      ],
      "name": "ClaimConditionUpdated",
      "type": "event"
    },
    {
      "anonymous": false,
      "inputs": [
        {
          "indexed": false,
          "internalType": "string",
          "name": "prevURI",
          "type": "string"
        },
        {
          "indexed": false,
          "internalType": "string",
          "name": "newURI",
          "type": "string"
        }
      ],
      "name": "ContractURIUpdated",
      "type": "event"
    },
    {
      "anonymous": false,
      "inputs": [
        {
          "indexed": true,
          "internalType": "address",
          "name": "newRoyaltyRecipient",
          "type": "address"
        },
        {
          "indexed": false,
          "internalType": "uint256",
          "name": "newRoyaltyBps",
          "type": "uint256"
        }
      ],
      "name": "DefaultRoyalty",
      "type": "event"
    },
    {
      "anonymous": false,
      "inputs": [
        {
          "indexed": false,
          "internalType": "bool",
          "name": "restriction",
          "type": "bool"
        }
      ],
      "name": "OperatorRestriction",
      "type": "event"
    },
    {
      "anonymous": false,
      "inputs": [
        {
          "indexed": true,
          "internalType": "address",
          "name": "prevOwner",
          "type": "address"
        },
        {
          "indexed": true,
          "internalType": "address",
          "name": "newOwner",
          "type": "address"
        }
      ],
      "name": "OwnerUpdated",
      "type": "event"
    },
    {
      "anonymous": false,
      "inputs": [
        {
          "indexed": true,
          "internalType": "address",
          "name": "recipient",
          "type": "address"
        }
      ],
      "name": "PrimarySaleRecipientUpdated",
      "type": "event"
    },
    {
      "anonymous": false,
      "inputs": [
        {
          "indexed": true,
          "internalType": "uint256",
          "name": "tokenId",
          "type": "uint256"
        },
        {
          "indexed": true,
          "internalType": "address",
          "name": "royaltyRecipient",
          "type": "address"
        },
        {
          "indexed": false,
          "internalType": "uint256",
          "name": "royaltyBps",
          "type": "uint256"
        }
      ],
      "name": "RoyaltyForToken",
      "type": "event"
    },
    {
      "anonymous": false,
      "inputs": [
        {
          "indexed": true,
          "internalType": "uint256",
          "name": "index",
          "type": "uint256"
        },
        {
          "indexed": false,
          "internalType": "string",
          "name": "revealedURI",
          "type": "string"
        }
      ],
      "name": "TokenURIRevealed",
      "type": "event"
    },
    {
      "anonymous": false,
      "inputs": [
        {
          "indexed": true,
          "internalType": "address",
          "name": "claimer",
          "type": "address"
        },
        {
          "indexed": true,
          "internalType": "address",
          "name": "receiver",
          "type": "address"
        },
        {
          "indexed": true,
          "internalType": "uint256",
          "name": "startTokenId",
          "type": "uint256"
        },
        {
          "indexed": false,
          "internalType": "uint256",
          "name": "quantityClaimed",
          "type": "uint256"
        }
      ],
      "name": "TokensClaimed",
      "type": "event"
    },
    {
      "anonymous": false,
      "inputs": [
        {
          "indexed": true,
          "internalType": "uint256",
          "name": "startTokenId",
          "type": "uint256"
        },
        {
          "indexed": false,
          "internalType": "uint256",
          "name": "endTokenId",
          "type": "uint256"
        },
        {
          "indexed": false,
          "internalType": "string",
          "name": "baseURI",
          "type": "string"
        },
        {
          "indexed": false,
          "internalType": "bytes",
          "name": "encryptedBaseURI",
          "type": "bytes"
        }
      ],
      "name": "TokensLazyMinted",
      "type": "event"
    },
    {
      "anonymous": false,
      "inputs": [
        {
          "indexed": true,
          "internalType": "address",
          "name": "from",
          "type": "address"
        },
        {
          "indexed": true,
          "internalType": "address",
          "name": "to",
          "type": "address"
        },
        {
          "indexed": true,
          "internalType": "uint256",
          "name": "tokenId",
          "type": "uint256"
        }
      ],
      "name": "Transfer",
      "type": "event"
    },
    {
      "inputs": [],
      "name": "OPERATOR_FILTER_REGISTRY",
      "outputs": [
        {
          "internalType": "contract IOperatorFilterRegistry",
          "name": "",
          "type": "address"
        }
      ],
      "stateMutability": "view",
      "type": "function"
    },
    {
      "inputs": [
        {
          "internalType": "address",
          "name": "operator",
          "type": "address"
        },
        {
          "internalType": "uint256",
          "name": "tokenId",
          "type": "uint256"
        }
      ],
      "name": "approve",
      "outputs": [],
      "stateMutability": "nonpayable",
      "type": "function"
    },
    {
      "inputs": [
        {
          "internalType": "address",
          "name": "owner",
          "type": "address"
        }
      ],
      "name": "balanceOf",
      "outputs": [
        {
          "internalType": "uint256",
          "name": "",
          "type": "uint256"
        }
      ],
      "stateMutability": "view",
      "type": "function"
    },
    {
      "inputs": [
        {
          "internalType": "uint256",
          "name": "_tokenId",
          "type": "uint256"
        }
      ],
      "name": "burn",
      "outputs": [],
      "stateMutability": "nonpayable",
      "type": "function"
    },
    {
      "inputs": [
        {
          "internalType": "address",
          "name": "_receiver",
          "type": "address"
        },
        {
          "internalType": "uint256",
          "name": "_quantity",
          "type": "uint256"
        },
        {
          "internalType": "address",
          "name": "_currency",
          "type": "address"
        },
        {
          "internalType": "uint256",
          "name": "_pricePerToken",
          "type": "uint256"
        },
        {
          "components": [
            {
              "internalType": "bytes32[]",
              "name": "proof",
              "type": "bytes32[]"
            },
            {
              "internalType": "uint256",
              "name": "quantityLimitPerWallet",
              "type": "uint256"
            },
            {
              "internalType": "uint256",
              "name": "pricePerToken",
              "type": "uint256"
            },
            {
              "internalType": "address",
              "name": "currency",
              "type": "address"
            }
          ],
          "internalType": "struct IDropSinglePhase.AllowlistProof",
          "name": "_allowlistProof",
          "type": "tuple"
        },
        {
          "internalType": "bytes",
          "name": "_data",
          "type": "bytes"
        }
      ],
      "name": "claim",
      "outputs": [],
      "stateMutability": "payable",
      "type": "function"
    },
    {
      "inputs": [],
      "name": "claimCondition",
      "outputs": [
        {
          "internalType": "uint256",
          "name": "startTimestamp",
          "type": "uint256"
        },
        {
          "internalType": "uint256",
          "name": "maxClaimableSupply",
          "type": "uint256"
        },
        {
          "internalType": "uint256",
          "name": "supplyClaimed",
          "type": "uint256"
        },
        {
          "internalType": "uint256",
          "name": "quantityLimitPerWallet",
          "type": "uint256"
        },
        {
          "internalType": "bytes32",
          "name": "merkleRoot",
          "type": "bytes32"
        },
        {
          "internalType": "uint256",
          "name": "pricePerToken",
          "type": "uint256"
        },
        {
          "internalType": "address",
          "name": "currency",
          "type": "address"
        },
        {
          "internalType": "string",
          "name": "metadata",
          "type": "string"
        }
      ],
      "stateMutability": "view",
      "type": "function"
    },
    {
      "inputs": [],
      "name": "contractURI",
      "outputs": [
        {
          "internalType": "string",
          "name": "",
          "type": "string"
        }
      ],
      "stateMutability": "view",
      "type": "function"
    },
    {
      "inputs": [
        {
          "internalType": "bytes",
          "name": "data",
          "type": "bytes"
        },
        {
          "internalType": "bytes",
          "name": "key",
          "type": "bytes"
        }
      ],
      "name": "encryptDecrypt",
      "outputs": [
        {
          "internalType": "bytes",
          "name": "result",
          "type": "bytes"
        }
      ],
      "stateMutability": "pure",
      "type": "function"
    },
    {
      "inputs": [
        {
          "internalType": "uint256",
          "name": "",
          "type": "uint256"
        }
      ],
      "name": "encryptedData",
      "outputs": [
        {
          "internalType": "bytes",
          "name": "",
          "type": "bytes"
        }
      ],
      "stateMutability": "view",
      "type": "function"
    },
    {
      "inputs": [
        {
          "internalType": "uint256",
          "name": "tokenId",
          "type": "uint256"
        }
      ],
      "name": "getApproved",
      "outputs": [
        {
          "internalType": "address",
          "name": "",
          "type": "address"
        }
      ],
      "stateMutability": "view",
      "type": "function"
    },
    {
      "inputs": [],
      "name": "getBaseURICount",
      "outputs": [
        {
          "internalType": "uint256",
          "name": "",
          "type": "uint256"
        }
      ],
      "stateMutability": "view",
      "type": "function"
    },
    {
      "inputs": [
        {
          "internalType": "uint256",
          "name": "_index",
          "type": "uint256"
        }
      ],
      "name": "getBatchIdAtIndex",
      "outputs": [
        {
          "internalType": "uint256",
          "name": "",
          "type": "uint256"
        }
      ],
      "stateMutability": "view",
      "type": "function"
    },
    {
      "inputs": [],
      "name": "getDefaultRoyaltyInfo",
      "outputs": [
        {
          "internalType": "address",
          "name": "",
          "type": "address"
        },
        {
          "internalType": "uint16",
          "name": "",
          "type": "uint16"
        }
      ],
      "stateMutability": "view",
      "type": "function"
    },
    {
      "inputs": [
        {
          "internalType": "uint256",
          "name": "_batchId",
          "type": "uint256"
        },
        {
          "internalType": "bytes",
          "name": "_key",
          "type": "bytes"
        }
      ],
      "name": "getRevealURI",
      "outputs": [
        {
          "internalType": "string",
          "name": "revealedURI",
          "type": "string"
        }
      ],
      "stateMutability": "view",
      "type": "function"
    },
    {
      "inputs": [
        {
          "internalType": "uint256",
          "name": "_tokenId",
          "type": "uint256"
        }
      ],
      "name": "getRoyaltyInfoForToken",
      "outputs": [
        {
          "internalType": "address",
          "name": "",
          "type": "address"
        },
        {
          "internalType": "uint16",
          "name": "",
          "type": "uint16"
        }
      ],
      "stateMutability": "view",
      "type": "function"
    },
    {
      "inputs": [
        {
          "internalType": "address",
          "name": "_claimer",
          "type": "address"
        }
      ],
      "name": "getSupplyClaimedByWallet",
      "outputs": [
        {
          "internalType": "uint256",
          "name": "",
          "type": "uint256"
        }
      ],
      "stateMutability": "view",
      "type": "function"
    },
    {
      "inputs": [
        {
          "internalType": "address",
          "name": "owner",
          "type": "address"
        },
        {
          "internalType": "address",
          "name": "operator",
          "type": "address"
        }
      ],
      "name": "isApprovedForAll",
      "outputs": [
        {
          "internalType": "bool",
          "name": "",
          "type": "bool"
        }
      ],
      "stateMutability": "view",
      "type": "function"
    },
    {
      "inputs": [
        {
          "internalType": "uint256",
          "name": "_batchId",
          "type": "uint256"
        }
      ],
      "name": "isEncryptedBatch",
      "outputs": [
        {
          "internalType": "bool",
          "name": "",
          "type": "bool"
        }
      ],
      "stateMutability": "view",
      "type": "function"
    },
    {
      "inputs": [
        {
          "internalType": "uint256",
          "name": "_amount",
          "type": "uint256"
        },
        {
          "internalType": "string",
          "name": "_baseURIForTokens",
          "type": "string"
        },
        {
          "internalType": "bytes",
          "name": "_data",
          "type": "bytes"
        }
      ],
      "name": "lazyMint",
      "outputs": [
        {
          "internalType": "uint256",
          "name": "batchId",
          "type": "uint256"
        }
      ],
      "stateMutability": "nonpayable",
      "type": "function"
    },
    {
      "inputs": [
        {
          "internalType": "bytes[]",
          "name": "data",
          "type": "bytes[]"
        }
      ],
      "name": "multicall",
      "outputs": [
        {
          "internalType": "bytes[]",
          "name": "results",
          "type": "bytes[]"
        }
      ],
      "stateMutability": "nonpayable",
      "type": "function"
    },
    {
      "inputs": [],
      "name": "name",
      "outputs": [
        {
          "internalType": "string",
          "name": "",
          "type": "string"
        }
      ],
      "stateMutability": "view",
      "type": "function"
    },
    {
      "inputs": [],
      "name": "nextTokenIdToClaim",
      "outputs": [
        {
          "internalType": "uint256",
          "name": "",
          "type": "uint256"
        }
      ],
      "stateMutability": "view",
      "type": "function"
    },
    {
      "inputs": [],
      "name": "nextTokenIdToMint",
      "outputs": [
        {
          "internalType": "uint256",
          "name": "",
          "type": "uint256"
        }
      ],
      "stateMutability": "view",
      "type": "function"
    },
    {
      "inputs": [],
      "name": "operatorRestriction",
      "outputs": [
        {
          "internalType": "bool",
          "name": "",
          "type": "bool"
        }
      ],
      "stateMutability": "view",
      "type": "function"
    },
    {
      "inputs": [],
      "name": "owner",
      "outputs": [
        {
          "internalType": "address",
          "name": "",
          "type": "address"
        }
      ],
      "stateMutability": "view",
      "type": "function"
    },
    {
      "inputs": [
        {
          "internalType": "uint256",
          "name": "tokenId",
          "type": "uint256"
        }
      ],
      "name": "ownerOf",
      "outputs": [
        {
          "internalType": "address",
          "name": "",
          "type": "address"
        }
      ],
      "stateMutability": "view",
      "type": "function"
    },
    {
      "inputs": [],
      "name": "primarySaleRecipient",
      "outputs": [
        {
          "internalType": "address",
          "name": "",
          "type": "address"
        }
      ],
      "stateMutability": "view",
      "type": "function"
    },
    {
      "inputs": [
        {
          "internalType": "uint256",
          "name": "_index",
          "type": "uint256"
        },
        {
          "internalType": "bytes",
          "name": "_key",
          "type": "bytes"
        }
      ],
      "name": "reveal",
      "outputs": [
        {
          "internalType": "string",
          "name": "revealedURI",
          "type": "string"
        }
      ],
      "stateMutability": "nonpayable",
      "type": "function"
    },
    {
      "inputs": [
        {
          "internalType": "uint256",
          "name": "tokenId",
          "type": "uint256"
        },
        {
          "internalType": "uint256",
          "name": "salePrice",
          "type": "uint256"
        }
      ],
      "name": "royaltyInfo",
      "outputs": [
        {
          "internalType": "address",
          "name": "receiver",
          "type": "address"
        },
        {
          "internalType": "uint256",
          "name": "royaltyAmount",
          "type": "uint256"
        }
      ],
      "stateMutability": "view",
      "type": "function"
    },
    {
      "inputs": [
        {
          "internalType": "address",
          "name": "from",
          "type": "address"
        },
        {
          "internalType": "address",
          "name": "to",
          "type": "address"
        },
        {
          "internalType": "uint256",
          "name": "tokenId",
          "type": "uint256"
        }
      ],
      "name": "safeTransferFrom",
      "outputs": [],
      "stateMutability": "nonpayable",
      "type": "function"
    },
    {
      "inputs": [
        {
          "internalType": "address",
          "name": "from",
          "type": "address"
        },
        {
          "internalType": "address",
          "name": "to",
          "type": "address"
        },
        {
          "internalType": "uint256",
          "name": "tokenId",
          "type": "uint256"
        },
        {
          "internalType": "bytes",
          "name": "data",
          "type": "bytes"
        }
      ],
      "name": "safeTransferFrom",
      "outputs": [],
      "stateMutability": "nonpayable",
      "type": "function"
    },
    {
      "inputs": [
        {
          "internalType": "address",
          "name": "operator",
          "type": "address"
        },
        {
          "internalType": "bool",
          "name": "approved",
          "type": "bool"
        }
      ],
      "name": "setApprovalForAll",
      "outputs": [],
      "stateMutability": "nonpayable",
      "type": "function"
    },
    {
      "inputs": [
        {
          "components": [
            {
              "internalType": "uint256",
              "name": "startTimestamp",
              "type": "uint256"
            },
            {
              "internalType": "uint256",
              "name": "maxClaimableSupply",
              "type": "uint256"
            },
            {
              "internalType": "uint256",
              "name": "supplyClaimed",
              "type": "uint256"
            },
            {
              "internalType": "uint256",
              "name": "quantityLimitPerWallet",
              "type": "uint256"
            },
            {
              "internalType": "bytes32",
              "name": "merkleRoot",
              "type": "bytes32"
            },
            {
              "internalType": "uint256",
              "name": "pricePerToken",
              "type": "uint256"
            },
            {
              "internalType": "address",
              "name": "currency",
              "type": "address"
            },
            {
              "internalType": "string",
              "name": "metadata",
              "type": "string"
            }
          ],
          "internalType": "struct IClaimCondition.ClaimCondition",
          "name": "_condition",
          "type": "tuple"
        },
        {
          "internalType": "bool",
          "name": "_resetClaimEligibility",
          "type": "bool"
        }
      ],
      "name": "setClaimConditions",
      "outputs": [],
      "stateMutability": "nonpayable",
      "type": "function"
    },
    {
      "inputs": [
        {
          "internalType": "string",
          "name": "_uri",
          "type": "string"
        }
      ],
      "name": "setContractURI",
      "outputs": [],
      "stateMutability": "nonpayable",
      "type": "function"
    },
    {
      "inputs": [
        {
          "internalType": "address",
          "name": "_royaltyRecipient",
          "type": "address"
        },
        {
          "internalType": "uint256",
          "name": "_royaltyBps",
          "type": "uint256"
        }
      ],
      "name": "setDefaultRoyaltyInfo",
      "outputs": [],
      "stateMutability": "nonpayable",
      "type": "function"
    },
    {
      "inputs": [
        {
          "internalType": "bool",
          "name": "_restriction",
          "type": "bool"
        }
      ],
      "name": "setOperatorRestriction",
      "outputs": [],
      "stateMutability": "nonpayable",
      "type": "function"
    },
    {
      "inputs": [
        {
          "internalType": "address",
          "name": "_newOwner",
          "type": "address"
        }
      ],
      "name": "setOwner",
      "outputs": [],
      "stateMutability": "nonpayable",
      "type": "function"
    },
    {
      "inputs": [
        {
          "internalType": "address",
          "name": "_saleRecipient",
          "type": "address"
        }
      ],
      "name": "setPrimarySaleRecipient",
      "outputs": [],
      "stateMutability": "nonpayable",
      "type": "function"
    },
    {
      "inputs": [
        {
          "internalType": "uint256",
          "name": "_tokenId",
          "type": "uint256"
        },
        {
          "internalType": "address",
          "name": "_recipient",
          "type": "address"
        },
        {
          "internalType": "uint256",
          "name": "_bps",
          "type": "uint256"
        }
      ],
      "name": "setRoyaltyInfoForToken",
      "outputs": [],
      "stateMutability": "nonpayable",
      "type": "function"
    },
    {
      "inputs": [
        {
          "internalType": "bytes4",
          "name": "interfaceId",
          "type": "bytes4"
        }
      ],
      "name": "supportsInterface",
      "outputs": [
        {
          "internalType": "bool",
          "name": "",
          "type": "bool"
        }
      ],
      "stateMutability": "view",
      "type": "function"
    },
    {
      "inputs": [],
      "name": "symbol",
      "outputs": [
        {
          "internalType": "string",
          "name": "",
          "type": "string"
        }
      ],
      "stateMutability": "view",
      "type": "function"
    },
    {
      "inputs": [
        {
          "internalType": "uint256",
          "name": "_tokenId",
          "type": "uint256"
        }
      ],
      "name": "tokenURI",
      "outputs": [
        {
          "internalType": "string",
          "name": "",
          "type": "string"
        }
      ],
      "stateMutability": "view",
      "type": "function"
    },
    {
      "inputs": [],
      "name": "totalSupply",
      "outputs": [
        {
          "internalType": "uint256",
          "name": "",
          "type": "uint256"
        }
      ],
      "stateMutability": "view",
      "type": "function"
    },
    {
      "inputs": [
        {
          "internalType": "address",
          "name": "from",
          "type": "address"
        },
        {
          "internalType": "address",
          "name": "to",
          "type": "address"
        },
        {
          "internalType": "uint256",
          "name": "tokenId",
          "type": "uint256"
        }
      ],
      "name": "transferFrom",
      "outputs": [],
      "stateMutability": "nonpayable",
      "type": "function"
    },
    {
      "inputs": [
        {
          "internalType": "address",
          "name": "_claimer",
          "type": "address"
        },
        {
          "internalType": "uint256",
          "name": "_quantity",
          "type": "uint256"
        },
        {
          "internalType": "address",
          "name": "_currency",
          "type": "address"
        },
        {
          "internalType": "uint256",
          "name": "_pricePerToken",
          "type": "uint256"
        },
        {
          "components": [
            {
              "internalType": "bytes32[]",
              "name": "proof",
              "type": "bytes32[]"
            },
            {
              "internalType": "uint256",
              "name": "quantityLimitPerWallet",
              "type": "uint256"
            },
            {
              "internalType": "uint256",
              "name": "pricePerToken",
              "type": "uint256"
            },
            {
              "internalType": "address",
              "name": "currency",
              "type": "address"
            }
          ],
          "internalType": "struct IDropSinglePhase.AllowlistProof",
          "name": "_allowlistProof",
          "type": "tuple"
        }
      ],
      "name": "verifyClaim",
      "outputs": [
        {
          "internalType": "bool",
          "name": "isOverride",
          "type": "bool"
        }
      ],
      "stateMutability": "view",
      "type": "function"
    }
  ],
  "bytecode": "0x60806040523480156200001157600080fd5b50604051620047643803806200476483398101604081905262000034916200052a565b733cc6cdda760b79bafa08df41ecfa224f810dceb6600186868160029080519060200190620000659291906200039a565b5080516200007b9060039060208401906200039a565b506000805550506daaeb6d7670e522a718067333cd4e3b15620001c75780156200011557604051633e9f1edf60e11b81523060048201526001600160a01b03831660248201526daaeb6d7670e522a718067333cd4e90637d3e3dbe906044015b600060405180830381600087803b158015620000f657600080fd5b505af11580156200010b573d6000803e3d6000fd5b50505050620001c7565b6001600160a01b03821615620001665760405163a0af290360e01b81523060048201526001600160a01b03831660248201526daaeb6d7670e522a718067333cd4e9063a0af290390604401620000db565b604051632210724360e11b81523060048201526daaeb6d7670e522a718067333cd4e90634420e48690602401600060405180830381600087803b158015620001ad57600080fd5b505af1158015620001c2573d6000803e3d6000fd5b505050505b50620001d59050336200020c565b620001ea836001600160801b0384166200025e565b620001f58162000309565b62000201600162000353565b505050505062000616565b600980546001600160a01b038381166001600160a01b0319831681179093556040519116919082907f8292fce18fa69edf4db7b94ea2e58241df0ae57f97e0a6c9b29067028bf92d7690600090a35050565b612710811115620002a75760405162461bcd60e51b815260206004820152600f60248201526e45786365656473206d61782062707360881b604482015260640160405180910390fd5b600a80546001600160a01b0384166001600160b01b03199091168117600160a01b61ffff851602179091556040518281527f90d7ec04bcb8978719414f82e52e4cb651db41d0e6f8cea6118c2191e6183adb9060200160405180910390a25050565b600e80546001600160a01b0319166001600160a01b0383169081179091556040517f299d17e95023f496e0ffc4909cff1a61f74bb5eb18de6f900f4155bfa1b3b33390600090a250565b6011805460ff19168215159081179091556040519081527f38475885990d8dfe9ca01f0ef160a1b5514426eab9ddbc953a3353410ba780969060200160405180910390a150565b828054620003a890620005da565b90600052602060002090601f016020900481019282620003cc576000855562000417565b82601f10620003e757805160ff191683800117855562000417565b8280016001018555821562000417579182015b8281111562000417578251825591602001919060010190620003fa565b506200042592915062000429565b5090565b5b808211156200042557600081556001016200042a565b634e487b7160e01b600052604160045260246000fd5b600082601f8301126200046857600080fd5b81516001600160401b038082111562000485576200048562000440565b604051601f8301601f19908116603f01168101908282118183101715620004b057620004b062000440565b81604052838152602092508683858801011115620004cd57600080fd5b600091505b83821015620004f15785820183015181830184015290820190620004d2565b83821115620005035760008385830101525b9695505050505050565b80516001600160a01b03811681146200052557600080fd5b919050565b600080600080600060a086880312156200054357600080fd5b85516001600160401b03808211156200055b57600080fd5b6200056989838a0162000456565b965060208801519150808211156200058057600080fd5b506200058f8882890162000456565b945050620005a0604087016200050d565b60608701519093506001600160801b0381168114620005be57600080fd5b9150620005ce608087016200050d565b90509295509295909350565b600181811c90821680620005ef57607f821691505b6020821081036200061057634e487b7160e01b600052602260045260246000fd5b50919050565b61413e80620006266000396000f3fe6080604052600436106102725760003560e01c806363b45e2d1161014f578063ac9650d8116100c1578063d37c353b1161007a578063d37c353b146107c3578063d637ed59146107e3578063e71503221461080c578063e8a3d4851461082c578063e985e9c514610841578063eec8897c1461088a57600080fd5b8063ac9650d8146106f6578063acd083f814610723578063b24f2d3914610738578063b88d4fde14610763578063c87b56dd14610783578063ce805642146107a357600080fd5b8063938e3d7b11610113578063938e3d7b1461064157806395d89b41146106615780639bcf7a15146106765780639fc4d68f14610696578063a05112fc146106b6578063a22cb465146106d657600080fd5b806363b45e2d146105bb5780636f4f2837146105d057806370a08231146105f057806384bb1e42146106105780638da5cb5b1461062357600080fd5b806335b65e1f116101e857806342966c68116101ac57806342966c68146104df578063492e224b146104ff5780634cc157df1461051f578063504c6e0114610561578063600dd5ea1461057b5780636352211e1461059b57600080fd5b806335b65e1f146104245780633b1475a71461046857806341f434341461047d578063426cfaf31461049f57806342842e0e146104bf57600080fd5b806313af40351161023a57806313af40351461034257806318160ddd1461036257806323b872dd146103855780632419f51b146103a55780632a55205a146103c557806332f0cd641461040457600080fd5b806301ffc9a71461027757806306fdde03146102ac578063079fe40e146102ce578063081812fc14610300578063095ea7b314610320575b600080fd5b34801561028357600080fd5b5061029761029236600461344c565b6108aa565b60405190151581526020015b60405180910390f35b3480156102b857600080fd5b506102c1610917565b6040516102a391906134c1565b3480156102da57600080fd5b50600e546001600160a01b03165b6040516001600160a01b0390911681526020016102a3565b34801561030c57600080fd5b506102e861031b3660046134d4565b6109a9565b34801561032c57600080fd5b5061034061033b366004613509565b6109ed565b005b34801561034e57600080fd5b5061034061035d366004613533565b610a06565b34801561036e57600080fd5b50600154600054035b6040519081526020016102a3565b34801561039157600080fd5b506103406103a036600461354e565b610a3f565b3480156103b157600080fd5b506103776103c03660046134d4565b610a6a565b3480156103d157600080fd5b506103e56103e036600461358a565b610ad8565b604080516001600160a01b0390931683526020830191909152016102a3565b34801561041057600080fd5b5061034061041f3660046135ba565b610b15565b34801561043057600080fd5b5061037761043f366004613533565b601a546000908152601b602090815260408083206001600160a01b039094168352929052205490565b34801561047457600080fd5b50600f54610377565b34801561048957600080fd5b506102e86daaeb6d7670e522a718067333cd4e81565b3480156104ab57600080fd5b506103406104ba3660046135d7565b610b86565b3480156104cb57600080fd5b506103406104da36600461354e565b610d9b565b3480156104eb57600080fd5b506103406104fa3660046134d4565b610dc0565b34801561050b57600080fd5b5061029761051a3660046134d4565b610dcb565b34801561052b57600080fd5b5061053f61053a3660046134d4565b610df1565b604080516001600160a01b03909316835261ffff9091166020830152016102a3565b34801561056d57600080fd5b506011546102979060ff1681565b34801561058757600080fd5b50610340610596366004613509565b610e5c565b3480156105a757600080fd5b506102e86105b63660046134d4565b610e8e565b3480156105c757600080fd5b50600c54610377565b3480156105dc57600080fd5b506103406105eb366004613533565b610ea0565b3480156105fc57600080fd5b5061037761060b366004613533565b610ecd565b61034061061e366004613711565b610f1b565b34801561062f57600080fd5b506009546001600160a01b03166102e8565b34801561064d57600080fd5b5061034061065c3660046137a7565b610ff6565b34801561066d57600080fd5b506102c1611023565b34801561068257600080fd5b506103406106913660046137ef565b611032565b3480156106a257600080fd5b506102c16106b136600461385c565b611061565b3480156106c257600080fd5b506102c16106d13660046134d4565b6111e1565b3480156106e257600080fd5b506103406106f13660046138a7565b61127b565b34801561070257600080fd5b506107166107113660046138c3565b61128f565b6040516102a39190613937565b34801561072f57600080fd5b50600054610377565b34801561074457600080fd5b50600a546001600160a01b03811690600160a01b900461ffff1661053f565b34801561076f57600080fd5b5061034061077e366004613999565b611383565b34801561078f57600080fd5b506102c161079e3660046134d4565b6113b0565b3480156107af57600080fd5b506102c16107be36600461385c565b61141f565b3480156107cf57600080fd5b506103776107de366004613a00565b6114c2565b3480156107ef57600080fd5b506107f861155a565b6040516102a3989796959493929190613a79565b34801561081857600080fd5b506102c1610827366004613ace565b611619565b34801561083857600080fd5b506102c161168e565b34801561084d57600080fd5b5061029761085c366004613b29565b6001600160a01b03918216600090815260076020908152604080832093909416825291909152205460ff1690565b34801561089657600080fd5b506102976108a5366004613b5c565b61169b565b60006301ffc9a760e01b6001600160e01b0319831614806108db57506380ac58cd60e01b6001600160e01b03198316145b806108f65750635b5e139f60e01b6001600160e01b03198316145b8061091157506001600160e01b0319821663152a902d60e11b145b92915050565b60606002805461092690613bcd565b80601f016020809104026020016040519081016040528092919081815260200182805461095290613bcd565b801561099f5780601f106109745761010080835404028352916020019161099f565b820191906000526020600020905b81548152906001019060200180831161098257829003601f168201915b5050505050905090565b60006109b482611a4d565b6109d1576040516333d1c03960e21b815260040160405180910390fd5b506000908152600660205260409020546001600160a01b031690565b816109f781611a78565b610a018383611b3c565b505050565b610a0e611bbd565b610a335760405162461bcd60e51b8152600401610a2a90613c01565b60405180910390fd5b610a3c81611bea565b50565b826001600160a01b0381163314610a5957610a5933611a78565b610a64848484611c3c565b50505050565b6000610a75600c5490565b8210610ab35760405162461bcd60e51b815260206004820152600d60248201526c092dcecc2d8d2c840d2dcc8caf609b1b6044820152606401610a2a565b600c8281548110610ac657610ac6613c29565b90600052602060002001549050919050565b600080600080610ae786610df1565b90945084925061ffff169050612710610b008287613c55565b610b0a9190613c8a565b925050509250929050565b610b1d611bbd565b610b7d5760405162461bcd60e51b815260206004820152602b60248201527f4e6f7420617574686f72697a656420746f20736574206f70657261746f72207260448201526a32b9ba3934b1ba34b7b71760a91b6064820152608401610a2a565b610a3c81611c47565b610b8e611bbd565b610baa5760405162461bcd60e51b8152600401610a2a90613c01565b601a546014548215610bf9575060003360405160609190911b6bffffffffffffffffffffffff191660208201524360348201526054016040516020818303038152906040528051906020012091505b8360200135811115610c425760405162461bcd60e51b81526020600482015260126024820152711b585e081cdd5c1c1b1e4818db185a5b595960721b6044820152606401610a2a565b604051806101000160405280856000013581526020018560200135815260200182815260200185606001358152602001856080013581526020018560a0013581526020018560c0016020810190610c999190613533565b6001600160a01b03168152602001610cb460e0870187613c9e565b8080601f01602080910402602001604051908101604052809392919081815260200183838082843760009201919091525050509152508051601290815560208083015160135560408301516014556060830151601555608083015160165560a083015160175560c0830151601880546001600160a01b0319166001600160a01b0390921691909117905560e08301518051610d5392601992019061339d565b505050601a8290556040517f6dab9d7d05d468100139089b2516cb8ff286c3972ff070d3b509e371f0d0d4b890610d8d9086908690613d0d565b60405180910390a150505050565b826001600160a01b0381163314610db557610db533611a78565b610a64848484611c8e565b610a3c816001611ca9565b60008181526010602052604081208054829190610de790613bcd565b9050119050919050565b6000818152600b60209081526040808320815180830190925280546001600160a01b031680835260019091015492820192909252829115610e385780516020820151610e52565b600a546001600160a01b03811690600160a01b900461ffff165b9250925050915091565b610e64611bbd565b610e805760405162461bcd60e51b8152600401610a2a90613c01565b610e8a8282611e5c565b5050565b6000610e9982611f02565b5192915050565b610ea8611bbd565b610ec45760405162461bcd60e51b8152600401610a2a90613c01565b610a3c8161201c565b60006001600160a01b038216610ef6576040516323d3ad8160e21b815260040160405180910390fd5b506001600160a01b03166000908152600560205260409020546001600160401b031690565b610f29868686868686612066565b601a54610f39338787878761169b565b508560126002016000828254610f4f9190613dd9565b90915550506000818152601b6020908152604080832033845290915281208054889290610f7d908490613dd9565b90915550610f90905060008787876120cd565b6000610f9c888861217f565b9050806001600160a01b038916336001600160a01b03167fff097c7d8b1957a4ff09ef1361b5fb54dcede3941ba836d0beb9d10bec725de68a604051610fe491815260200190565b60405180910390a45050505050505050565b610ffe611bbd565b61101a5760405162461bcd60e51b8152600401610a2a90613c01565b610a3c8161218c565b60606003805461092690613bcd565b61103a611bbd565b6110565760405162461bcd60e51b8152600401610a2a90613c01565b610a0183838361226e565b60008381526010602052604081208054606092919061107f90613bcd565b80601f01602080910402602001604051908101604052809291908181526020018280546110ab90613bcd565b80156110f85780601f106110cd576101008083540402835291602001916110f8565b820191906000526020600020905b8154815290600101906020018083116110db57829003601f168201915b5050505050905080516000036111445760405162461bcd60e51b8152602060048201526011602482015270139bdd1a1a5b99c81d1bc81c995d99585b607a1b6044820152606401610a2a565b6000808280602001905181019061115b9190613df1565b9150915061116a828787611619565b935080848787466040516020016111849493929190613e71565b60405160208183030381529060405280519060200120146111d75760405162461bcd60e51b815260206004820152600d60248201526c496e636f7272656374206b657960981b6044820152606401610a2a565b5050509392505050565b601060205260009081526040902080546111fa90613bcd565b80601f016020809104026020016040519081016040528092919081815260200182805461122690613bcd565b80156112735780601f1061124857610100808354040283529160200191611273565b820191906000526020600020905b81548152906001019060200180831161125657829003601f168201915b505050505081565b8161128581611a78565b610a018383612337565b6060816001600160401b038111156112a9576112a9613646565b6040519080825280602002602001820160405280156112dc57816020015b60608152602001906001900390816112c75790505b50905060005b8281101561137c5761134c3085858481811061130057611300613c29565b90506020028101906113129190613c9e565b8080601f0160208091040260200160405190810160405280939291908181526020018383808284376000920191909152506123cc92505050565b82828151811061135e5761135e613c29565b6020026020010181905250808061137490613e9a565b9150506112e2565b5092915050565b836001600160a01b038116331461139d5761139d33611a78565b6113a9858585856123f8565b5050505050565b606060006113bd8361243c565b50905060006113cb84612541565b90506113d682610dcb565b1561140457806040516020016113ec9190613eb3565b60405160208183030381529060405292505050919050565b8061140e856126a2565b6040516020016113ec929190613ed8565b6060611429611bbd565b6114455760405162461bcd60e51b8152600401610a2a90613c01565b600061145085610a6a565b905061145d818585611061565b915061147881604051806020016040528060008152506127aa565b61148281836127c9565b847f6df1d8db2a036436ffe0b2d1833f2c5f1e624818dfce2578c0faa4b83ef9998d836040516114b291906134c1565b60405180910390a2509392505050565b60008115611543576000806114d984860186613f07565b9150915081516000141580156114ee57508015155b156115405761154088600f546115049190613dd9565b86868080601f0160208091040260200160405190810160405280939291908181526020018383808284376000920191909152506127aa92505050565b50505b61155086868686866127e8565b9695505050505050565b60128054601354601454601554601654601754601854601980549798969795969495939492936001600160a01b03909216929161159690613bcd565b80601f01602080910402602001604051908101604052809291908181526020018280546115c290613bcd565b801561160f5780601f106115e45761010080835404028352916020019161160f565b820191906000526020600020905b8154815290600101906020018083116115f257829003601f168201915b5050505050905088565b8251604080518083016020019091528181529060005b8181101561168557600085858360405160200161164e93929190613f4b565b60408051601f1981840301815291905280516020918201208884018201511885840182015261167e915082613dd9565b905061162f565b50509392505050565b600880546111fa90613bcd565b60408051610100810182526012805482526013546020830152601454928201929092526015546060820152601654608082015260175460a08201526018546001600160a01b031660c082015260198054600093849392909160e08401919061170290613bcd565b80601f016020809104026020016040519081016040528092919081815260200182805461172e90613bcd565b801561177b5780601f106117505761010080835404028352916020019161177b565b820191906000526020600020905b81548152906001019060200180831161175e57829003601f168201915b50505091909252505050606081015160a082015160c083015160808401519394509192909190156118605761185c6117b38780613f5d565b80806020026020016040519081016040528093929190818152602001838360200280828437600092019190915250505060808088015191508d9060208b01359060408c013590611808908d0160608e01613533565b6040516bffffffffffffffffffffffff19606095861b811660208301526034820194909452605481019290925290921b166074820152608801604051602081830303815290604052805190602001206128f5565b5094505b84156118e7578560200135600003611878578261187e565b85602001355b92506000198660400135036118935781611899565b85604001355b91506000198660400135141580156118ca575060006118be6080880160608901613533565b6001600160a01b031614155b6118d457806118e4565b6118e46080870160608801613533565b90505b601a546000908152601b602090815260408083206001600160a01b03808f168552925290912054908981169083161415806119225750828814155b156119625760405162461bcd60e51b815260206004820152601060248201526f2150726963654f7243757272656e637960801b6044820152606401610a2a565b891580611977575083611975828c613dd9565b115b156119ad5760405162461bcd60e51b8152600401610a2a906020808252600490820152632151747960e01b604082015260600190565b84602001518a86604001516119c29190613dd9565b11156119fd5760405162461bcd60e51b815260206004820152600a602482015269214d6178537570706c7960b01b6044820152606401610a2a565b8451421015611a3f5760405162461bcd60e51b815260206004820152600e60248201526d18d85b9d0818db185a5b481e595d60921b6044820152606401610a2a565b505050505095945050505050565b6000805482108015610911575050600090815260046020526040902054600160e01b900460ff161590565b60115460ff1615610a3c576daaeb6d7670e522a718067333cd4e3b15610a3c57604051633185c44d60e21b81523060048201526001600160a01b03821660248201526daaeb6d7670e522a718067333cd4e9063c617113490604401602060405180830381865afa158015611af0573d6000803e3d6000fd5b505050506040513d601f19601f82011682018060405250810190611b149190613fa6565b610a3c57604051633b79c77360e21b81526001600160a01b0382166004820152602401610a2a565b6000611b4782610e8e565b9050806001600160a01b0316836001600160a01b031603611b7b5760405163250fdee360e21b815260040160405180910390fd5b336001600160a01b03821614611bb257611b95813361085c565b611bb2576040516367d9dca160e11b815260040160405180910390fd5b610a018383836129c3565b6000611bd16009546001600160a01b031690565b6001600160a01b0316336001600160a01b031614905090565b600980546001600160a01b038381166001600160a01b0319831681179093556040519116919082907f8292fce18fa69edf4db7b94ea2e58241df0ae57f97e0a6c9b29067028bf92d7690600090a35050565b610a01838383612a1f565b6011805460ff19168215159081179091556040519081527f38475885990d8dfe9ca01f0ef160a1b5514426eab9ddbc953a3353410ba780969060200160405180910390a150565b610a0183838360405180602001604052806000815250611383565b6000611cb483611f02565b80519091508215611d1a576000336001600160a01b0383161480611cdd5750611cdd823361085c565b80611cf8575033611ced866109a9565b6001600160a01b0316145b905080611d1857604051632ce44b5f60e11b815260040160405180910390fd5b505b611d26600085836129c3565b6001600160a01b0380821660008181526005602090815260408083208054600160801b6000196001600160401b0380841691909101811667ffffffffffffffff198416811783900482166001908101831690930277ffffffffffffffff0000000000000000ffffffffffffffff19909416179290921783558b86526004909452828520805460ff60e01b1942909316600160a01b026001600160e01b03199091169097179690961716600160e01b178555918901808452922080549194909116611e24576000548214611e2457805460208701516001600160401b0316600160a01b026001600160e01b03199091166001600160a01b038716171781555b5050604051869250600091506001600160a01b038416906000805160206140e9833981519152908390a4505060018054810190555050565b612710811115611ea05760405162461bcd60e51b815260206004820152600f60248201526e45786365656473206d61782062707360881b6044820152606401610a2a565b600a80546001600160a01b0384166001600160b01b03199091168117600160a01b61ffff851602179091556040518281527f90d7ec04bcb8978719414f82e52e4cb651db41d0e6f8cea6118c2191e6183adb9060200160405180910390a25050565b60408051606081018252600080825260208201819052918101919091528160005481101561200357600081815260046020908152604091829020825160608101845290546001600160a01b0381168252600160a01b81046001600160401b031692820192909252600160e01b90910460ff161515918101829052906120015780516001600160a01b031615611f98579392505050565b5060001901600081815260046020908152604091829020825160608101845290546001600160a01b038116808352600160a01b82046001600160401b031693830193909352600160e01b900460ff1615159281019290925215611ffc579392505050565b611f98565b505b604051636f96cda160e11b815260040160405180910390fd5b600e80546001600160a01b0319166001600160a01b0383169081179091556040517f299d17e95023f496e0ffc4909cff1a61f74bb5eb18de6f900f4155bfa1b3b33390600090a250565b600f54856000546120779190613dd9565b11156120c55760405162461bcd60e51b815260206004820152601860248201527f4e6f7420656e6f756768206d696e74656420746f6b656e7300000000000000006044820152606401610a2a565b505050505050565b8015610a645760006120df8285613c55565b905073eeeeeeeeeeeeeeeeeeeeeeeeeeeeeeeeeeeeeeed196001600160a01b0384160161214d5780341461214d5760405162461bcd60e51b81526020600482015260156024820152744d7573742073656e6420746f74616c20707269636560581b6044820152606401610a2a565b60006001600160a01b038616156121645785612171565b600e546001600160a01b03165b90506120c584338385612bf8565b6000546109118383612c3e565b60006008805461219b90613bcd565b80601f01602080910402602001604051908101604052809291908181526020018280546121c790613bcd565b80156122145780601f106121e957610100808354040283529160200191612214565b820191906000526020600020905b8154815290600101906020018083116121f757829003601f168201915b505085519394506122309360089350602087019250905061339d565b507fc9c7c3fe08b88b4df9d4d47ef47d2c43d55c025a0ba88ca442580ed9e7348a168183604051612262929190613fc3565b60405180910390a15050565b6127108111156122b25760405162461bcd60e51b815260206004820152600f60248201526e45786365656473206d61782062707360881b6044820152606401610a2a565b6040805180820182526001600160a01b0384811680835260208084018681526000898152600b8352869020945185546001600160a01b031916941693909317845591516001909301929092559151838152909185917f7365cf4122f072a3365c20d54eff9b38d73c096c28e1892ec8f5b0e403a0f12d910160405180910390a3505050565b336001600160a01b038316036123605760405163b06307db60e01b815260040160405180910390fd5b3360008181526007602090815260408083206001600160a01b03871680855290835292819020805460ff191686151590811790915590519081529192917f17307eab39ab6107e8899845ad3d59bd9653f200f220920489ca2b5937696c31910160405180910390a35050565b60606123f183836040518060600160405280602781526020016140c260279139612c58565b9392505050565b612403848484612a1f565b6001600160a01b0383163b15610a645761241f84848484612d2b565b610a64576040516368d2bf6b60e11b815260040160405180910390fd5b600080600061244a600c5490565b90506000600c80548060200260200160405190810160405280929190818152602001828054801561249a57602002820191906000526020600020905b815481526020019060010190808311612486575b5050505050905060005b82811015612506578181815181106124be576124be613c29565b60200260200101518610156124f4578093508181815181106124e2576124e2613c29565b60200260200101519450505050915091565b6124ff600182613dd9565b90506124a4565b5060405162461bcd60e51b815260206004820152600f60248201526e125b9d985b1a59081d1bdad95b9259608a1b6044820152606401610a2a565b6060600061254e600c5490565b90506000600c80548060200260200160405190810160405280929190818152602001828054801561259e57602002820191906000526020600020905b81548152602001906001019080831161258a575b5050505050905060005b82811015612506578181815181106125c2576125c2613c29565b602002602001015185101561269057600d60008383815181106125e7576125e7613c29565b60200260200101518152602001908152602001600020805461260890613bcd565b80601f016020809104026020016040519081016040528092919081815260200182805461263490613bcd565b80156126815780601f1061265657610100808354040283529160200191612681565b820191906000526020600020905b81548152906001019060200180831161266457829003601f168201915b50505050509350505050919050565b61269b600182613dd9565b90506125a8565b6060816000036126c95750506040805180820190915260018152600360fc1b602082015290565b8160005b81156126f357806126dd81613e9a565b91506126ec9050600a83613c8a565b91506126cd565b6000816001600160401b0381111561270d5761270d613646565b6040519080825280601f01601f191660200182016040528015612737576020820181803683370190505b5090505b84156127a25761274c600183613ff1565b9150612759600a86614008565b612764906030613dd9565b60f81b81838151811061277957612779613c29565b60200101906001600160f81b031916908160001a90535061279b600a86613c8a565b945061273b565b949350505050565b60008281526010602090815260409091208251610a019284019061339d565b6000828152600d602090815260409091208251610a019284019061339d565b60006127f2611bbd565b61280e5760405162461bcd60e51b8152600401610a2a90613c01565b856000036128465760405162461bcd60e51b81526020600482015260056024820152640c08185b5d60da1b6044820152606401610a2a565b6000600f54905061288e818888888080601f016020809104026020016040519081016040528093929190818152602001838380828437600092019190915250612e1692505050565b600f919091559150807f2a0365091ef1a40953c670dce28177e37520648a6fdc91506bffac0ab045570d60016128c48a84613dd9565b6128ce9190613ff1565b888888886040516128e395949392919061401c565b60405180910390a25095945050505050565b6000808281805b87518110156129b757612910600283613c55565b9150600088828151811061292657612926613c29565b602002602001015190508084116129685760408051602081018690529081018290526060016040516020818303038152906040528051906020012093506129a4565b60408051602081018390529081018590526060016040516020818303038152906040528051906020012093506001836129a19190613dd9565b92505b50806129af81613e9a565b9150506128fc565b50941495939450505050565b60008281526006602052604080822080546001600160a01b0319166001600160a01b0387811691821790925591518593918516917f8c5be1e5ebec7d5bd14f71427d1e84f3dd0314c0f7b2291e5b200ac8c7c3b92591a4505050565b6000612a2a82611f02565b9050836001600160a01b031681600001516001600160a01b031614612a615760405162a1148160e81b815260040160405180910390fd5b6000336001600160a01b0386161480612a7f5750612a7f853361085c565b80612a9a575033612a8f846109a9565b6001600160a01b0316145b905080612aba57604051632ce44b5f60e11b815260040160405180910390fd5b6001600160a01b038416612ae157604051633a954ecd60e21b815260040160405180910390fd5b612aed600084876129c3565b6001600160a01b038581166000908152600560209081526040808320805467ffffffffffffffff198082166001600160401b0392831660001901831617909255898616808652838620805493841693831660019081018416949094179055898652600490945282852080546001600160e01b031916909417600160a01b42909216919091021783558701808452922080549193909116612bc1576000548214612bc157805460208601516001600160401b0316600160a01b026001600160e01b03199091166001600160a01b038a16171781555b50505082846001600160a01b0316866001600160a01b03166000805160206140e983398151915260405160405180910390a46113a9565b8015610a645773eeeeeeeeeeeeeeeeeeeeeeeeeeeeeeeeeeeeeeed196001600160a01b03851601612c3257612c2d8282612e83565b610a64565b610a6484848484612f26565b610e8a828260405180602001604052806000815250612f79565b60606001600160a01b0384163b612cc05760405162461bcd60e51b815260206004820152602660248201527f416464726573733a2064656c65676174652063616c6c20746f206e6f6e2d636f6044820152651b9d1c9858dd60d21b6064820152608401610a2a565b600080856001600160a01b031685604051612cdb9190614055565b600060405180830381855af49150503d8060008114612d16576040519150601f19603f3d011682016040523d82523d6000602084013e612d1b565b606091505b509150915061155082828661311c565b604051630a85bd0160e11b81526000906001600160a01b0385169063150b7a0290612d60903390899088908890600401614071565b6020604051808303816000875af1925050508015612d9b575060408051601f3d908101601f19168201909252612d98918101906140a4565b60015b612df9573d808015612dc9576040519150601f19603f3d011682016040523d82523d6000602084013e612dce565b606091505b508051600003612df1576040516368d2bf6b60e11b815260040160405180910390fd5b805181602001fd5b6001600160e01b031916630a85bd0160e11b149050949350505050565b600080612e238486613dd9565b600c8054600181019091557fdf6966c971051c3d54ec59162606531493a51404a002842f56009d7e5cf4a8c7018190556000818152600d602090815260409091208551929450849350612e7a92909186019061339d565b50935093915050565b6000826001600160a01b03168260405160006040518083038185875af1925050503d8060008114612ed0576040519150601f19603f3d011682016040523d82523d6000602084013e612ed5565b606091505b5050905080610a015760405162461bcd60e51b815260206004820152601c60248201527f6e617469766520746f6b656e207472616e73666572206661696c6564000000006044820152606401610a2a565b816001600160a01b0316836001600160a01b03160315610a6457306001600160a01b03841603612f6457612c2d6001600160a01b0385168383613155565b610a646001600160a01b0385168484846131b8565b6000546001600160a01b038416612fa257604051622e076360e81b815260040160405180910390fd5b82600003612fc35760405163b562e8dd60e01b815260040160405180910390fd5b6001600160a01b038416600081815260056020908152604080832080546fffffffffffffffffffffffffffffffff1981166001600160401b038083168b0181169182176801000000000000000067ffffffffffffffff1990941690921783900481168b01811690920217909155858452600490925290912080546001600160e01b0319168317600160a01b42909316929092029190911790558190818501903b156130d9575b60405182906001600160a01b038816906000906000805160206140e9833981519152908290a46130a26000878480600101955087612d2b565b6130bf576040516368d2bf6b60e11b815260040160405180910390fd5b8082106130695782600054146130d457600080fd5b61310c565b5b6040516001830192906001600160a01b038816906000906000805160206140e9833981519152908290a48082106130da575b506000908155610a649085838684565b6060831561312b5750816123f1565b82511561313b5782518084602001fd5b8160405162461bcd60e51b8152600401610a2a91906134c1565b6040516001600160a01b038316602482015260448101829052610a0190849063a9059cbb60e01b906064015b60408051601f198184030181529190526020810180516001600160e01b03166001600160e01b0319909316929092179091526131f0565b6040516001600160a01b0380851660248301528316604482015260648101829052610a649085906323b872dd60e01b90608401613181565b6000613245826040518060400160405280602081526020017f5361666545524332303a206c6f772d6c6576656c2063616c6c206661696c6564815250856001600160a01b03166132c29092919063ffffffff16565b805190915015610a0157808060200190518101906132639190613fa6565b610a015760405162461bcd60e51b815260206004820152602a60248201527f5361666545524332303a204552433230206f7065726174696f6e20646964206e6044820152691bdd081cdd58d8d9595960b21b6064820152608401610a2a565b60606127a28484600085856001600160a01b0385163b6133245760405162461bcd60e51b815260206004820152601d60248201527f416464726573733a2063616c6c20746f206e6f6e2d636f6e74726163740000006044820152606401610a2a565b600080866001600160a01b031685876040516133409190614055565b60006040518083038185875af1925050503d806000811461337d576040519150601f19603f3d011682016040523d82523d6000602084013e613382565b606091505b509150915061339282828661311c565b979650505050505050565b8280546133a990613bcd565b90600052602060002090601f0160209004810192826133cb5760008555613411565b82601f106133e457805160ff1916838001178555613411565b82800160010185558215613411579182015b828111156134115782518255916020019190600101906133f6565b5061341d929150613421565b5090565b5b8082111561341d5760008155600101613422565b6001600160e01b031981168114610a3c57600080fd5b60006020828403121561345e57600080fd5b81356123f181613436565b60005b8381101561348457818101518382015260200161346c565b83811115610a645750506000910152565b600081518084526134ad816020860160208601613469565b601f01601f19169290920160200192915050565b6020815260006123f16020830184613495565b6000602082840312156134e657600080fd5b5035919050565b80356001600160a01b038116811461350457600080fd5b919050565b6000806040838503121561351c57600080fd5b613525836134ed565b946020939093013593505050565b60006020828403121561354557600080fd5b6123f1826134ed565b60008060006060848603121561356357600080fd5b61356c846134ed565b925061357a602085016134ed565b9150604084013590509250925092565b6000806040838503121561359d57600080fd5b50508035926020909101359150565b8015158114610a3c57600080fd5b6000602082840312156135cc57600080fd5b81356123f1816135ac565b600080604083850312156135ea57600080fd5b82356001600160401b0381111561360057600080fd5b8301610100818603121561361357600080fd5b91506020830135613623816135ac565b809150509250929050565b60006080828403121561364057600080fd5b50919050565b634e487b7160e01b600052604160045260246000fd5b604051601f8201601f191681016001600160401b038111828210171561368457613684613646565b604052919050565b60006001600160401b038211156136a5576136a5613646565b50601f01601f191660200190565b60006136c66136c18461368c565b61365c565b90508281528383830111156136da57600080fd5b828260208301376000602084830101529392505050565b600082601f83011261370257600080fd5b6123f1838335602085016136b3565b60008060008060008060c0878903121561372a57600080fd5b613733876134ed565b955060208701359450613748604088016134ed565b93506060870135925060808701356001600160401b038082111561376b57600080fd5b6137778a838b0161362e565b935060a089013591508082111561378d57600080fd5b5061379a89828a016136f1565b9150509295509295509295565b6000602082840312156137b957600080fd5b81356001600160401b038111156137cf57600080fd5b8201601f810184136137e057600080fd5b6127a2848235602084016136b3565b60008060006060848603121561380457600080fd5b8335925061357a602085016134ed565b60008083601f84011261382657600080fd5b5081356001600160401b0381111561383d57600080fd5b60208301915083602082850101111561385557600080fd5b9250929050565b60008060006040848603121561387157600080fd5b8335925060208401356001600160401b0381111561388e57600080fd5b61389a86828701613814565b9497909650939450505050565b600080604083850312156138ba57600080fd5b613613836134ed565b600080602083850312156138d657600080fd5b82356001600160401b03808211156138ed57600080fd5b818501915085601f83011261390157600080fd5b81358181111561391057600080fd5b8660208260051b850101111561392557600080fd5b60209290920196919550909350505050565b6000602080830181845280855180835260408601915060408160051b870101925083870160005b8281101561398c57603f1988860301845261397a858351613495565b9450928501929085019060010161395e565b5092979650505050505050565b600080600080608085870312156139af57600080fd5b6139b8856134ed565b93506139c6602086016134ed565b92506040850135915060608501356001600160401b038111156139e857600080fd5b6139f4878288016136f1565b91505092959194509250565b600080600080600060608688031215613a1857600080fd5b8535945060208601356001600160401b0380821115613a3657600080fd5b613a4289838a01613814565b90965094506040880135915080821115613a5b57600080fd5b50613a6888828901613814565b969995985093965092949392505050565b60006101008a83528960208401528860408401528760608401528660808401528560a084015260018060a01b03851660c08401528060e0840152613abf81840185613495565b9b9a5050505050505050505050565b600080600060408486031215613ae357600080fd5b83356001600160401b0380821115613afa57600080fd5b613b06878388016136f1565b94506020860135915080821115613b1c57600080fd5b5061389a86828701613814565b60008060408385031215613b3c57600080fd5b613b45836134ed565b9150613b53602084016134ed565b90509250929050565b600080600080600060a08688031215613b7457600080fd5b613b7d866134ed565b945060208601359350613b92604087016134ed565b92506060860135915060808601356001600160401b03811115613bb457600080fd5b613bc08882890161362e565b9150509295509295909350565b600181811c90821680613be157607f821691505b60208210810361364057634e487b7160e01b600052602260045260246000fd5b6020808252600e908201526d139bdd08185d5d1a1bdc9a5e995960921b604082015260600190565b634e487b7160e01b600052603260045260246000fd5b634e487b7160e01b600052601160045260246000fd5b6000816000190483118215151615613c6f57613c6f613c3f565b500290565b634e487b7160e01b600052601260045260246000fd5b600082613c9957613c99613c74565b500490565b6000808335601e19843603018112613cb557600080fd5b8301803591506001600160401b03821115613ccf57600080fd5b60200191503681900382131561385557600080fd5b81835281816020850137506000828201602090810191909152601f909101601f19169091010190565b60408152823560408201526020830135606082015260408301356080820152606083013560a0820152608083013560c082015260a083013560e08201526000613d5860c085016134ed565b6001600160a01b03166101008381019190915260e08501359036869003601e19018212613d8457600080fd5b9085019081356001600160401b03811115613d9e57600080fd5b803603871315613dad57600080fd5b81610120860152613dc661014086018260208601613ce4565b93505050506123f1602083018415159052565b60008219821115613dec57613dec613c3f565b500190565b60008060408385031215613e0457600080fd5b82516001600160401b03811115613e1a57600080fd5b8301601f81018513613e2b57600080fd5b8051613e396136c18261368c565b818152866020838501011115613e4e57600080fd5b613e5f826020830160208601613469565b60209590950151949694955050505050565b60008551613e83818460208a01613469565b820184868237909301918252506020019392505050565b600060018201613eac57613eac613c3f565b5060010190565b60008251613ec5818460208701613469565b600360fc1b920191825250600101919050565b60008351613eea818460208801613469565b835190830190613efe818360208801613469565b01949350505050565b60008060408385031215613f1a57600080fd5b82356001600160401b03811115613f3057600080fd5b613f3c858286016136f1565b95602094909401359450505050565b82848237909101908152602001919050565b6000808335601e19843603018112613f7457600080fd5b8301803591506001600160401b03821115613f8e57600080fd5b6020019150600581901b360382131561385557600080fd5b600060208284031215613fb857600080fd5b81516123f1816135ac565b604081526000613fd66040830185613495565b8281036020840152613fe88185613495565b95945050505050565b60008282101561400357614003613c3f565b500390565b60008261401757614017613c74565b500690565b858152606060208201526000614036606083018688613ce4565b8281036040840152614049818587613ce4565b98975050505050505050565b60008251614067818460208701613469565b9190910192915050565b6001600160a01b038581168252841660208201526040810183905260806060820181905260009061155090830184613495565b6000602082840312156140b657600080fd5b81516123f18161343656fe416464726573733a206c6f772d6c6576656c2064656c65676174652063616c6c206661696c6564ddf252ad1be2c89b69c2b068fc378daa952ba7f163c4a11628f55a4df523b3efa2646970667358221220398ec45d5bdbc6d42d7d1b95fc643202a238b2674d0b2ddae5a996004acd625564736f6c634300080d0033",
  "linkReferences": {},
  "deployedLinkReferences": {}
}